{
  "_format": "hh-sol-artifact-1",
  "contractName": "Lottery",
  "sourceName": "contracts/Lottery.sol",
  "abi": [
    {
      "inputs": [
        {
          "internalType": "address",
          "name": "_tokenAddress",
          "type": "address"
        }
      ],
      "stateMutability": "nonpayable",
      "type": "constructor"
    },
    {
      "inputs": [
        {
          "internalType": "address",
          "name": "owner",
          "type": "address"
        }
      ],
      "name": "OwnableInvalidOwner",
      "type": "error"
    },
    {
      "inputs": [
        {
          "internalType": "address",
          "name": "account",
          "type": "address"
        }
      ],
      "name": "OwnableUnauthorizedAccount",
      "type": "error"
    },
    {
      "anonymous": false,
      "inputs": [
        {
          "indexed": false,
          "internalType": "uint256",
          "name": "newDuration",
          "type": "uint256"
        }
      ],
      "name": "DurationUpdated",
      "type": "event"
    },
    {
      "anonymous": false,
      "inputs": [
        {
          "indexed": true,
          "internalType": "address",
          "name": "previousOwner",
          "type": "address"
        },
        {
          "indexed": true,
          "internalType": "address",
          "name": "newOwner",
          "type": "address"
        }
      ],
      "name": "OwnershipTransferred",
      "type": "event"
    },
    {
      "anonymous": false,
      "inputs": [
        {
          "indexed": false,
          "internalType": "uint256",
          "name": "round",
          "type": "uint256"
        }
      ],
      "name": "RoundEndedEmpty",
      "type": "event"
    },
    {
      "anonymous": false,
      "inputs": [
        {
          "indexed": true,
          "internalType": "address",
          "name": "player",
          "type": "address"
        },
        {
          "indexed": false,
          "internalType": "uint256",
          "name": "amount",
          "type": "uint256"
        }
      ],
      "name": "TicketPurchased",
      "type": "event"
    },
    {
      "anonymous": false,
      "inputs": [
        {
          "indexed": true,
          "internalType": "address",
          "name": "winner",
          "type": "address"
        },
        {
          "indexed": false,
          "internalType": "uint256",
          "name": "amount",
          "type": "uint256"
        },
        {
          "indexed": false,
          "internalType": "bool",
          "name": "isJackpotHit",
          "type": "bool"
        }
      ],
      "name": "WinnerPicked",
      "type": "event"
    },
    {
      "inputs": [],
      "name": "BASE_JACKPOT_CHANCE",
      "outputs": [
        {
          "internalType": "uint256",
          "name": "",
          "type": "uint256"
        }
      ],
      "stateMutability": "view",
      "type": "function"
    },
    {
      "inputs": [],
      "name": "CALLER_REWARD_PERCENT",
      "outputs": [
        {
          "internalType": "uint256",
          "name": "",
          "type": "uint256"
        }
      ],
      "stateMutability": "view",
      "type": "function"
    },
    {
      "inputs": [],
      "name": "CHANCE_DIVISOR",
      "outputs": [
        {
          "internalType": "uint256",
          "name": "",
          "type": "uint256"
        }
      ],
      "stateMutability": "view",
      "type": "function"
    },
    {
      "inputs": [
        {
          "internalType": "uint256",
          "name": "_quantity",
          "type": "uint256"
        },
        {
          "internalType": "address",
          "name": "_referrer",
          "type": "address"
        }
      ],
      "name": "buyTickets",
      "outputs": [],
      "stateMutability": "nonpayable",
      "type": "function"
    },
    {
      "inputs": [],
      "name": "endTime",
      "outputs": [
        {
          "internalType": "uint256",
          "name": "",
          "type": "uint256"
        }
      ],
      "stateMutability": "view",
      "type": "function"
    },
    {
      "inputs": [],
      "name": "getCurrentJackpotChance",
      "outputs": [
        {
          "internalType": "uint256",
          "name": "",
          "type": "uint256"
        }
      ],
      "stateMutability": "view",
      "type": "function"
    },
    {
      "inputs": [],
      "name": "getHistory",
      "outputs": [
        {
          "components": [
            {
              "internalType": "uint256",
              "name": "round",
              "type": "uint256"
            },
            {
              "internalType": "address",
              "name": "winner",
              "type": "address"
            },
            {
              "internalType": "uint256",
              "name": "amount",
              "type": "uint256"
            },
            {
              "internalType": "bool",
              "name": "isJackpotHit",
              "type": "bool"
            },
            {
              "internalType": "uint256",
              "name": "time",
              "type": "uint256"
            }
          ],
          "internalType": "struct Lottery.WinnerHistory[]",
          "name": "",
          "type": "tuple[]"
        }
      ],
      "stateMutability": "view",
      "type": "function"
    },
    {
      "inputs": [],
      "name": "getPlayers",
      "outputs": [
        {
          "internalType": "address[]",
          "name": "",
          "type": "address[]"
        }
      ],
      "stateMutability": "view",
      "type": "function"
    },
    {
      "inputs": [
        {
          "internalType": "uint256",
          "name": "",
          "type": "uint256"
        },
        {
          "internalType": "address",
          "name": "",
          "type": "address"
        }
      ],
      "name": "hasPlayedInRound",
      "outputs": [
        {
          "internalType": "bool",
          "name": "",
          "type": "bool"
        }
      ],
      "stateMutability": "view",
      "type": "function"
    },
    {
      "inputs": [
        {
          "internalType": "uint256",
          "name": "",
          "type": "uint256"
        }
      ],
      "name": "history",
      "outputs": [
        {
          "internalType": "uint256",
          "name": "round",
          "type": "uint256"
        },
        {
          "internalType": "address",
          "name": "winner",
          "type": "address"
        },
        {
          "internalType": "uint256",
          "name": "amount",
          "type": "uint256"
        },
        {
          "internalType": "bool",
          "name": "isJackpotHit",
          "type": "bool"
        },
        {
          "internalType": "uint256",
          "name": "time",
          "type": "uint256"
        }
      ],
      "stateMutability": "view",
      "type": "function"
    },
    {
      "inputs": [],
      "name": "jackpotPool",
      "outputs": [
        {
          "internalType": "uint256",
          "name": "",
          "type": "uint256"
        }
      ],
      "stateMutability": "view",
      "type": "function"
    },
    {
      "inputs": [],
      "name": "lotteryDuration",
      "outputs": [
        {
          "internalType": "uint256",
          "name": "",
          "type": "uint256"
        }
      ],
      "stateMutability": "view",
      "type": "function"
    },
    {
      "inputs": [],
      "name": "lotteryId",
      "outputs": [
        {
          "internalType": "uint256",
          "name": "",
          "type": "uint256"
        }
      ],
      "stateMutability": "view",
      "type": "function"
    },
    {
      "inputs": [],
      "name": "owner",
      "outputs": [
        {
          "internalType": "address",
          "name": "",
          "type": "address"
        }
      ],
      "stateMutability": "view",
      "type": "function"
    },
    {
      "inputs": [],
      "name": "pickWinner",
      "outputs": [],
      "stateMutability": "nonpayable",
      "type": "function"
    },
    {
      "inputs": [
        {
          "internalType": "uint256",
          "name": "",
          "type": "uint256"
        }
      ],
      "name": "players",
      "outputs": [
        {
          "internalType": "address",
          "name": "",
          "type": "address"
        }
      ],
      "stateMutability": "view",
      "type": "function"
    },
    {
      "inputs": [],
      "name": "renounceOwnership",
      "outputs": [],
      "stateMutability": "nonpayable",
      "type": "function"
    },
    {
      "inputs": [
        {
          "internalType": "uint256",
          "name": "_seconds",
          "type": "uint256"
        }
      ],
      "name": "setLotteryDuration",
      "outputs": [],
      "stateMutability": "nonpayable",
      "type": "function"
    },
    {
      "inputs": [],
      "name": "ticketPrice",
      "outputs": [
        {
          "internalType": "uint256",
          "name": "",
          "type": "uint256"
        }
      ],
      "stateMutability": "view",
      "type": "function"
    },
    {
      "inputs": [],
      "name": "token",
      "outputs": [
        {
          "internalType": "contract IERC20",
          "name": "",
          "type": "address"
        }
      ],
      "stateMutability": "view",
      "type": "function"
    },
    {
      "inputs": [
        {
          "internalType": "address",
          "name": "newOwner",
          "type": "address"
        }
      ],
      "name": "transferOwnership",
      "outputs": [],
      "stateMutability": "nonpayable",
      "type": "function"
    },
    {
      "inputs": [],
      "name": "uniquePlayersCount",
      "outputs": [
        {
          "internalType": "uint256",
          "name": "",
          "type": "uint256"
        }
      ],
      "stateMutability": "view",
      "type": "function"
    }
  ],
  "bytecode": "0x60806040526101a460075534801561001657600080fd5b5060405161227e38038061227e83398181016040528101906100389190610254565b33600073ffffffffffffffffffffffffffffffffffffffff168173ffffffffffffffffffffffffffffffffffffffff16036100ab5760006040517f1e4fbdf70000000000000000000000000000000000000000000000000000000081526004016100a29190610290565b60405180910390fd5b6100ba8161012d60201b60201c565b5080600160006101000a81548173ffffffffffffffffffffffffffffffffffffffff021916908373ffffffffffffffffffffffffffffffffffffffff160217905550678ac7230489e8000060028190555060016003819055506007544261012191906102e4565b60068190555050610318565b60008060009054906101000a900473ffffffffffffffffffffffffffffffffffffffff169050816000806101000a81548173ffffffffffffffffffffffffffffffffffffffff021916908373ffffffffffffffffffffffffffffffffffffffff1602179055508173ffffffffffffffffffffffffffffffffffffffff168173ffffffffffffffffffffffffffffffffffffffff167f8be0079c531659141344cd1fd0a4f28419497f9722a3daafe3b4186f6b6457e060405160405180910390a35050565b600080fd5b600073ffffffffffffffffffffffffffffffffffffffff82169050919050565b6000610221826101f6565b9050919050565b61023181610216565b811461023c57600080fd5b50565b60008151905061024e81610228565b92915050565b60006020828403121561026a576102696101f1565b5b60006102788482850161023f565b91505092915050565b61028a81610216565b82525050565b60006020820190506102a56000830184610281565b92915050565b6000819050919050565b7f4e487b7100000000000000000000000000000000000000000000000000000000600052601160045260246000fd5b60006102ef826102ab565b91506102fa836102ab565b9250828201905080821115610312576103116102b5565b5b92915050565b611f57806103276000396000f3fe608060405234801561001057600080fd5b50600436106101425760003560e01c80638da5cb5b116100b8578063d3ce01a91161007c578063d3ce01a914610325578063e580f47b14610343578063f2fde38b14610361578063f71d96cb1461037d578063fc0c546a146103ad578063fdad3a5f146103cb57610142565b80638da5cb5b14610279578063a7a38f0b14610297578063aa15efc8146102cb578063b05b32ae146102e9578063ced9deae1461030757610142565b80635b4e628b1161010a5780635b4e628b146101db5780635d495aea1461020b5780636c7ad6da14610215578063715018a61461023357806387a927ed1461023d5780638b5b9ccc1461025b57610142565b80631209b1f6146101475780632b58150b146101655780632d97902f146101815780633197cbb61461019f5780633604f55f146101bd575b600080fd5b61014f6103e7565b60405161015c919061153c565b60405180910390f35b61017f600480360381019061017a9190611588565b6103ed565b005b61018961047a565b604051610196919061153c565b60405180910390f35b6101a7610480565b6040516101b4919061153c565b60405180910390f35b6101c5610486565b6040516101d2919061153c565b60405180910390f35b6101f560048036038101906101f09190611613565b6104d2565b604051610202919061166e565b60405180910390f35b610213610501565b005b61021d610c36565b60405161022a919061153c565b60405180910390f35b61023b610c3b565b005b610245610c4f565b604051610252919061153c565b60405180910390f35b610263610c5c565b6040516102709190611747565b60405180910390f35b610281610cea565b60405161028e9190611778565b60405180910390f35b6102b160048036038101906102ac9190611588565b610d13565b6040516102c2959493929190611793565b60405180910390f35b6102d3610d86565b6040516102e0919061191b565b60405180910390f35b6102f1610e74565b6040516102fe919061153c565b60405180910390f35b61030f610e7a565b60405161031c919061153c565b60405180910390f35b61032d610e7f565b60405161033a919061153c565b60405180910390f35b61034b610e85565b604051610358919061153c565b60405180910390f35b61037b6004803603810190610376919061193d565b610e8b565b005b61039760048036038101906103929190611588565b610f11565b6040516103a49190611778565b60405180910390f35b6103b5610f50565b6040516103c291906119c9565b60405180910390f35b6103e560048036038101906103e09190611613565b610f76565b005b60025481565b6103f561134e565b603c811015610439576040517f08c379a000000000000000000000000000000000000000000000000000000000815260040161043090611a41565b60405180910390fd5b806007819055507f91abcc2d6823e3a3f11d31b208dd3065d2c6a791f1c7c9fe96a42ce12897eac58160405161046f919061153c565b60405180910390a150565b60075481565b60065481565b60008068056bc75e2d631000006005546104a09190611abf565b9050600081600a6104b19190611af0565b90506103e88111156104c9576103e8925050506104cf565b80925050505b90565b60096020528160005260406000206020528060005260406000206000915091509054906101000a900460ff1681565b600654421015610546576040517f08c379a000000000000000000000000000000000000000000000000000000000815260040161053d90611b70565b60405180910390fd5b60006004805490500361068f57600a6040518060a001604052806003548152602001600073ffffffffffffffffffffffffffffffffffffffff168152602001600081526020016000151581526020014281525090806001815401808255809150506001900390600052602060002090600502016000909190919091506000820151816000015560208201518160010160006101000a81548173ffffffffffffffffffffffffffffffffffffffff021916908373ffffffffffffffffffffffffffffffffffffffff1602179055506040820151816002015560608201518160030160006101000a81548160ff0219169083151502179055506080820151816004015550507f33ebe9b70a0a586a9b100ea5b703fa19a1b445bc3458abdccc0e06a38a29f20b60035460405161067a919061153c565b60405180910390a161068a6113d5565b610c34565b600060048054905042600480549050446040516020016106b193929190611bb1565b6040516020818303038152906040528051906020012060001c6106d49190611bee565b90506000600482815481106106ec576106eb611c1f565b5b9060005260206000200160009054906101000a900473ffffffffffffffffffffffffffffffffffffffff1690506000600160009054906101000a900473ffffffffffffffffffffffffffffffffffffffff1673ffffffffffffffffffffffffffffffffffffffff166370a08231306040518263ffffffff1660e01b81526004016107769190611778565b602060405180830381865afa158015610793573d6000803e3d6000fd5b505050506040513d601f19601f820116820180604052508101906107b79190611c63565b905060006103e8826107c99190611abf565b90506000806000600160085411156108bf5760006064600a876107ec9190611c90565b6107f69190611abf565b9050806005600082825461080a9190611af0565b92505081905550600061081b610486565b90506000612710428a60055460405160200161083993929190611d1a565b6040516020818303038152906040528051906020012060001c61085c9190611bee565b90508181101561089d576001935060055483888a61087a9190611d57565b6108849190611d57565b61088e9190611af0565b955060006005819055506108b7565b8287896108aa9190611d57565b6108b49190611d57565b95505b5050506108ce565b83856108cb9190611d57565b92505b60646002846108dd9190611c90565b6108e79190611abf565b915081836108f59190611d57565b9250600160009054906101000a900473ffffffffffffffffffffffffffffffffffffffff1673ffffffffffffffffffffffffffffffffffffffff1663a9059cbb61093d610cea565b866040518363ffffffff1660e01b815260040161095b929190611d8b565b6020604051808303816000875af115801561097a573d6000803e3d6000fd5b505050506040513d601f19601f8201168201806040525081019061099e9190611de0565b50600160009054906101000a900473ffffffffffffffffffffffffffffffffffffffff1673ffffffffffffffffffffffffffffffffffffffff1663a9059cbb33846040518363ffffffff1660e01b81526004016109fc929190611d8b565b6020604051808303816000875af1158015610a1b573d6000803e3d6000fd5b505050506040513d601f19601f82011682018060405250810190610a3f9190611de0565b50600160009054906101000a900473ffffffffffffffffffffffffffffffffffffffff1673ffffffffffffffffffffffffffffffffffffffff1663a9059cbb87856040518363ffffffff1660e01b8152600401610a9d929190611d8b565b6020604051808303816000875af1158015610abc573d6000803e3d6000fd5b505050506040513d601f19601f82011682018060405250810190610ae09190611de0565b50600a6040518060a0016040528060035481526020018873ffffffffffffffffffffffffffffffffffffffff16815260200185815260200183151581526020014281525090806001815401808255809150506001900390600052602060002090600502016000909190919091506000820151816000015560208201518160010160006101000a81548173ffffffffffffffffffffffffffffffffffffffff021916908373ffffffffffffffffffffffffffffffffffffffff1602179055506040820151816002015560608201518160030160006101000a81548160ff0219169083151502179055506080820151816004015550508573ffffffffffffffffffffffffffffffffffffffff167f3fd24722acf42686982a4418156b8d655846de56892ab1f6b7a25c56659fe8e18483604051610c1c929190611e0d565b60405180910390a2610c2c6113d5565b505050505050505b565b600a81565b610c4361134e565b610c4d6000611419565b565b68056bc75e2d6310000081565b60606004805480602002602001604051908101604052809291908181526020018280548015610ce057602002820191906000526020600020905b8160009054906101000a900473ffffffffffffffffffffffffffffffffffffffff1673ffffffffffffffffffffffffffffffffffffffff1681526020019060010190808311610c96575b5050505050905090565b60008060009054906101000a900473ffffffffffffffffffffffffffffffffffffffff16905090565b600a8181548110610d2357600080fd5b90600052602060002090600502016000915090508060000154908060010160009054906101000a900473ffffffffffffffffffffffffffffffffffffffff16908060020154908060030160009054906101000a900460ff16908060040154905085565b6060600a805480602002602001604051908101604052809291908181526020016000905b82821015610e6b57838290600052602060002090600502016040518060a0016040529081600082015481526020016001820160009054906101000a900473ffffffffffffffffffffffffffffffffffffffff1673ffffffffffffffffffffffffffffffffffffffff1673ffffffffffffffffffffffffffffffffffffffff168152602001600282015481526020016003820160009054906101000a900460ff1615151515815260200160048201548152505081526020019060010190610daa565b50505050905090565b60055481565b600281565b60085481565b60035481565b610e9361134e565b600073ffffffffffffffffffffffffffffffffffffffff168173ffffffffffffffffffffffffffffffffffffffff1603610f055760006040517f1e4fbdf7000000000000000000000000000000000000000000000000000000008152600401610efc9190611778565b60405180910390fd5b610f0e81611419565b50565b60048181548110610f2157600080fd5b906000526020600020016000915054906101000a900473ffffffffffffffffffffffffffffffffffffffff1681565b600160009054906101000a900473ffffffffffffffffffffffffffffffffffffffff1681565b6006544210610fba576040517f08c379a0000000000000000000000000000000000000000000000000000000008152600401610fb190611e82565b60405180910390fd5b600082600254610fca9190611c90565b9050600160009054906101000a900473ffffffffffffffffffffffffffffffffffffffff1673ffffffffffffffffffffffffffffffffffffffff166323b872dd3330846040518463ffffffff1660e01b815260040161102b93929190611ea2565b6020604051808303816000875af115801561104a573d6000803e3d6000fd5b505050506040513d601f19601f8201168201806040525081019061106e9190611de0565b5060096000600354815260200190815260200160002060003373ffffffffffffffffffffffffffffffffffffffff1673ffffffffffffffffffffffffffffffffffffffff16815260200190815260200160002060009054906101000a900460ff1661115757600160096000600354815260200190815260200160002060003373ffffffffffffffffffffffffffffffffffffffff1673ffffffffffffffffffffffffffffffffffffffff16815260200190815260200160002060006101000a81548160ff0219169083151502179055506008600081548092919061115190611ed9565b91905055505b60005b838110156111d2576004339080600181540180825580915050600190039060005260206000200160009091909190916101000a81548173ffffffffffffffffffffffffffffffffffffffff021916908373ffffffffffffffffffffffffffffffffffffffff160217905550808060010191505061115a565b50600073ffffffffffffffffffffffffffffffffffffffff168273ffffffffffffffffffffffffffffffffffffffff161415801561123c57503373ffffffffffffffffffffffffffffffffffffffff168273ffffffffffffffffffffffffffffffffffffffff1614155b156112fb57600160009054906101000a900473ffffffffffffffffffffffffffffffffffffffff1673ffffffffffffffffffffffffffffffffffffffff1663a9059cbb83606460018561128f9190611c90565b6112999190611abf565b6040518363ffffffff1660e01b81526004016112b6929190611d8b565b6020604051808303816000875af11580156112d5573d6000803e3d6000fd5b505050506040513d601f19601f820116820180604052508101906112f99190611de0565b505b3373ffffffffffffffffffffffffffffffffffffffff167f0668f5b446eb814fe35b3206f43f14bd8567ba04ddaf7a3ee56516929ab22ccb84604051611341919061153c565b60405180910390a2505050565b6113566114dd565b73ffffffffffffffffffffffffffffffffffffffff16611374610cea565b73ffffffffffffffffffffffffffffffffffffffff16146113d3576113976114dd565b6040517f118cdaa70000000000000000000000000000000000000000000000000000000081526004016113ca9190611778565b60405180910390fd5b565b600460006113e391906114e5565b6000600881905550600360008154809291906113fe90611ed9565b9190505550600754426114119190611af0565b600681905550565b60008060009054906101000a900473ffffffffffffffffffffffffffffffffffffffff169050816000806101000a81548173ffffffffffffffffffffffffffffffffffffffff021916908373ffffffffffffffffffffffffffffffffffffffff1602179055508173ffffffffffffffffffffffffffffffffffffffff168173ffffffffffffffffffffffffffffffffffffffff167f8be0079c531659141344cd1fd0a4f28419497f9722a3daafe3b4186f6b6457e060405160405180910390a35050565b600033905090565b50805460008255906000526020600020908101906115039190611506565b50565b5b8082111561151f576000816000905550600101611507565b5090565b6000819050919050565b61153681611523565b82525050565b6000602082019050611551600083018461152d565b92915050565b600080fd5b61156581611523565b811461157057600080fd5b50565b6000813590506115828161155c565b92915050565b60006020828403121561159e5761159d611557565b5b60006115ac84828501611573565b91505092915050565b600073ffffffffffffffffffffffffffffffffffffffff82169050919050565b60006115e0826115b5565b9050919050565b6115f0816115d5565b81146115fb57600080fd5b50565b60008135905061160d816115e7565b92915050565b6000806040838503121561162a57611629611557565b5b600061163885828601611573565b9250506020611649858286016115fe565b9150509250929050565b60008115159050919050565b61166881611653565b82525050565b6000602082019050611683600083018461165f565b92915050565b600081519050919050565b600082825260208201905092915050565b6000819050602082019050919050565b6116be816115d5565b82525050565b60006116d083836116b5565b60208301905092915050565b6000602082019050919050565b60006116f482611689565b6116fe8185611694565b9350611709836116a5565b8060005b8381101561173a57815161172188826116c4565b975061172c836116dc565b92505060018101905061170d565b5085935050505092915050565b6000602082019050818103600083015261176181846116e9565b905092915050565b611772816115d5565b82525050565b600060208201905061178d6000830184611769565b92915050565b600060a0820190506117a8600083018861152d565b6117b56020830187611769565b6117c2604083018661152d565b6117cf606083018561165f565b6117dc608083018461152d565b9695505050505050565b600081519050919050565b600082825260208201905092915050565b6000819050602082019050919050565b61181b81611523565b82525050565b61182a81611653565b82525050565b60a0820160008201516118466000850182611812565b50602082015161185960208501826116b5565b50604082015161186c6040850182611812565b50606082015161187f6060850182611821565b5060808201516118926080850182611812565b50505050565b60006118a48383611830565b60a08301905092915050565b6000602082019050919050565b60006118c8826117e6565b6118d281856117f1565b93506118dd83611802565b8060005b8381101561190e5781516118f58882611898565b9750611900836118b0565b9250506001810190506118e1565b5085935050505092915050565b6000602082019050818103600083015261193581846118bd565b905092915050565b60006020828403121561195357611952611557565b5b6000611961848285016115fe565b91505092915050565b6000819050919050565b600061198f61198a611985846115b5565b61196a565b6115b5565b9050919050565b60006119a182611974565b9050919050565b60006119b382611996565b9050919050565b6119c3816119a8565b82525050565b60006020820190506119de60008301846119ba565b92915050565b600082825260208201905092915050565b7f54686f69206769616e20717561206e67616e0000000000000000000000000000600082015250565b6000611a2b6012836119e4565b9150611a36826119f5565b602082019050919050565b60006020820190508181036000830152611a5a81611a1e565b9050919050565b7f4e487b7100000000000000000000000000000000000000000000000000000000600052601260045260246000fd5b7f4e487b7100000000000000000000000000000000000000000000000000000000600052601160045260246000fd5b6000611aca82611523565b9150611ad583611523565b925082611ae557611ae4611a61565b5b828204905092915050565b6000611afb82611523565b9150611b0683611523565b9250828201905080821115611b1e57611b1d611a90565b5b92915050565b7f43687561206865742067696f0000000000000000000000000000000000000000600082015250565b6000611b5a600c836119e4565b9150611b6582611b24565b602082019050919050565b60006020820190508181036000830152611b8981611b4d565b9050919050565b6000819050919050565b611bab611ba682611523565b611b90565b82525050565b6000611bbd8286611b9a565b602082019150611bcd8285611b9a565b602082019150611bdd8284611b9a565b602082019150819050949350505050565b6000611bf982611523565b9150611c0483611523565b925082611c1457611c13611a61565b5b828206905092915050565b7f4e487b7100000000000000000000000000000000000000000000000000000000600052603260045260246000fd5b600081519050611c5d8161155c565b92915050565b600060208284031215611c7957611c78611557565b5b6000611c8784828501611c4e565b91505092915050565b6000611c9b82611523565b9150611ca683611523565b9250828202611cb481611523565b91508282048414831517611ccb57611cca611a90565b5b5092915050565b60008160601b9050919050565b6000611cea82611cd2565b9050919050565b6000611cfc82611cdf565b9050919050565b611d14611d0f826115d5565b611cf1565b82525050565b6000611d268286611b9a565b602082019150611d368285611d03565b601482019150611d468284611b9a565b602082019150819050949350505050565b6000611d6282611523565b9150611d6d83611523565b9250828203905081811115611d8557611d84611a90565b5b92915050565b6000604082019050611da06000830185611769565b611dad602083018461152d565b9392505050565b611dbd81611653565b8114611dc857600080fd5b50565b600081519050611dda81611db4565b92915050565b600060208284031215611df657611df5611557565b5b6000611e0484828501611dcb565b91505092915050565b6000604082019050611e22600083018561152d565b611e2f602083018461165f565b9392505050565b7f566f6e672063686f69206461206b657420746875630000000000000000000000600082015250565b6000611e6c6015836119e4565b9150611e7782611e36565b602082019050919050565b60006020820190508181036000830152611e9b81611e5f565b9050919050565b6000606082019050611eb76000830186611769565b611ec46020830185611769565b611ed1604083018461152d565b949350505050565b6000611ee482611523565b91507fffffffffffffffffffffffffffffffffffffffffffffffffffffffffffffffff8203611f1657611f15611a90565b5b60018201905091905056fea26469706673582212206bd08ff925721f9529cc1c1a89fd713e4dd1bfeb9e7d7e2c74571a848acf5e7564736f6c634300081c0033",
  "linkReferences": {},
  "deployedLinkReferences": {}
}