{
  "_format": "hh-sol-artifact-1",
  "contractName": "Lottery",
  "sourceName": "contracts/Lottery.sol",
  "abi": [
    {
      "inputs": [
        {
          "internalType": "address",
          "name": "_tokenAddress",
          "type": "address"
        }
      ],
      "stateMutability": "nonpayable",
      "type": "constructor"
    },
    {
      "inputs": [
        {
          "internalType": "address",
          "name": "owner",
          "type": "address"
        }
      ],
      "name": "OwnableInvalidOwner",
      "type": "error"
    },
    {
      "inputs": [
        {
          "internalType": "address",
          "name": "account",
          "type": "address"
        }
      ],
      "name": "OwnableUnauthorizedAccount",
      "type": "error"
    },
    {
      "inputs": [
        {
          "internalType": "address",
          "name": "token",
          "type": "address"
        }
      ],
      "name": "SafeERC20FailedOperation",
      "type": "error"
    },
    {
      "anonymous": false,
      "inputs": [
        {
          "indexed": true,
          "internalType": "address",
          "name": "admin",
          "type": "address"
        },
        {
          "indexed": false,
          "internalType": "uint256",
          "name": "amount",
          "type": "uint256"
        },
        {
          "indexed": false,
          "internalType": "uint256",
          "name": "roundId",
          "type": "uint256"
        }
      ],
      "name": "AdminFeeTransferred",
      "type": "event"
    },
    {
      "anonymous": false,
      "inputs": [
        {
          "indexed": true,
          "internalType": "address",
          "name": "caller",
          "type": "address"
        },
        {
          "indexed": false,
          "internalType": "uint256",
          "name": "amount",
          "type": "uint256"
        },
        {
          "indexed": false,
          "internalType": "uint256",
          "name": "roundId",
          "type": "uint256"
        }
      ],
      "name": "CallerRewardTransferred",
      "type": "event"
    },
    {
      "anonymous": false,
      "inputs": [
        {
          "indexed": false,
          "internalType": "uint256",
          "name": "newDuration",
          "type": "uint256"
        }
      ],
      "name": "DurationUpdated",
      "type": "event"
    },
    {
      "anonymous": false,
      "inputs": [
        {
          "indexed": true,
          "internalType": "address",
          "name": "previousOwner",
          "type": "address"
        },
        {
          "indexed": true,
          "internalType": "address",
          "name": "newOwner",
          "type": "address"
        }
      ],
      "name": "OwnershipTransferred",
      "type": "event"
    },
    {
      "anonymous": false,
      "inputs": [
        {
          "indexed": true,
          "internalType": "address",
          "name": "winner",
          "type": "address"
        },
        {
          "indexed": false,
          "internalType": "uint256",
          "name": "amount",
          "type": "uint256"
        },
        {
          "indexed": false,
          "internalType": "uint256",
          "name": "roundId",
          "type": "uint256"
        },
        {
          "indexed": false,
          "internalType": "bool",
          "name": "isJackpotHit",
          "type": "bool"
        }
      ],
      "name": "PrizeTransferred",
      "type": "event"
    },
    {
      "anonymous": false,
      "inputs": [
        {
          "indexed": true,
          "internalType": "address",
          "name": "referrer",
          "type": "address"
        },
        {
          "indexed": false,
          "internalType": "uint256",
          "name": "amount",
          "type": "uint256"
        },
        {
          "indexed": true,
          "internalType": "address",
          "name": "buyer",
          "type": "address"
        },
        {
          "indexed": false,
          "internalType": "uint256",
          "name": "roundId",
          "type": "uint256"
        }
      ],
      "name": "ReferralBonusTransferred",
      "type": "event"
    },
    {
      "anonymous": false,
      "inputs": [
        {
          "indexed": false,
          "internalType": "uint256",
          "name": "round",
          "type": "uint256"
        }
      ],
      "name": "RoundEndedEmpty",
      "type": "event"
    },
    {
      "anonymous": false,
      "inputs": [
        {
          "indexed": false,
          "internalType": "uint256",
          "name": "roundId",
          "type": "uint256"
        },
        {
          "indexed": false,
          "internalType": "address",
          "name": "winner",
          "type": "address"
        },
        {
          "indexed": false,
          "internalType": "uint256",
          "name": "prize",
          "type": "uint256"
        },
        {
          "indexed": false,
          "internalType": "uint256",
          "name": "totalTickets",
          "type": "uint256"
        },
        {
          "indexed": false,
          "internalType": "uint256",
          "name": "totalFund",
          "type": "uint256"
        },
        {
          "indexed": false,
          "internalType": "uint256",
          "name": "jackpotContribution",
          "type": "uint256"
        },
        {
          "indexed": false,
          "internalType": "bool",
          "name": "isJackpotHit",
          "type": "bool"
        }
      ],
      "name": "RoundResult",
      "type": "event"
    },
    {
      "anonymous": false,
      "inputs": [
        {
          "indexed": true,
          "internalType": "address",
          "name": "player",
          "type": "address"
        },
        {
          "indexed": false,
          "internalType": "uint256",
          "name": "amount",
          "type": "uint256"
        },
        {
          "indexed": false,
          "internalType": "uint256",
          "name": "roundId",
          "type": "uint256"
        }
      ],
      "name": "TicketPurchased",
      "type": "event"
    },
    {
      "anonymous": false,
      "inputs": [
        {
          "indexed": true,
          "internalType": "address",
          "name": "winner",
          "type": "address"
        },
        {
          "indexed": false,
          "internalType": "uint256",
          "name": "amount",
          "type": "uint256"
        },
        {
          "indexed": false,
          "internalType": "bool",
          "name": "isJackpotHit",
          "type": "bool"
        }
      ],
      "name": "WinnerPicked",
      "type": "event"
    },
    {
      "inputs": [],
      "name": "BASE_JACKPOT_CHANCE",
      "outputs": [
        {
          "internalType": "uint256",
          "name": "",
          "type": "uint256"
        }
      ],
      "stateMutability": "view",
      "type": "function"
    },
    {
      "inputs": [],
      "name": "CALLER_REWARD_PERCENT",
      "outputs": [
        {
          "internalType": "uint256",
          "name": "",
          "type": "uint256"
        }
      ],
      "stateMutability": "view",
      "type": "function"
    },
    {
      "inputs": [],
      "name": "CHANCE_DIVISOR",
      "outputs": [
        {
          "internalType": "uint256",
          "name": "",
          "type": "uint256"
        }
      ],
      "stateMutability": "view",
      "type": "function"
    },
    {
      "inputs": [],
      "name": "MAX_JACKPOT",
      "outputs": [
        {
          "internalType": "uint256",
          "name": "",
          "type": "uint256"
        }
      ],
      "stateMutability": "view",
      "type": "function"
    },
    {
      "inputs": [],
      "name": "MIN_PLAYERS_FOR_JACKPOT",
      "outputs": [
        {
          "internalType": "uint256",
          "name": "",
          "type": "uint256"
        }
      ],
      "stateMutability": "view",
      "type": "function"
    },
    {
      "inputs": [
        {
          "internalType": "uint256",
          "name": "_quantity",
          "type": "uint256"
        },
        {
          "internalType": "address",
          "name": "_referrer",
          "type": "address"
        }
      ],
      "name": "buyTickets",
      "outputs": [],
      "stateMutability": "nonpayable",
      "type": "function"
    },
    {
      "inputs": [],
      "name": "endTime",
      "outputs": [
        {
          "internalType": "uint256",
          "name": "",
          "type": "uint256"
        }
      ],
      "stateMutability": "view",
      "type": "function"
    },
    {
      "inputs": [],
      "name": "getCurrentJackpotChance",
      "outputs": [
        {
          "internalType": "uint256",
          "name": "",
          "type": "uint256"
        }
      ],
      "stateMutability": "view",
      "type": "function"
    },
    {
      "inputs": [],
      "name": "getHistory",
      "outputs": [
        {
          "components": [
            {
              "internalType": "uint256",
              "name": "round",
              "type": "uint256"
            },
            {
              "internalType": "address",
              "name": "winner",
              "type": "address"
            },
            {
              "internalType": "uint256",
              "name": "amount",
              "type": "uint256"
            },
            {
              "internalType": "bool",
              "name": "isJackpotHit",
              "type": "bool"
            },
            {
              "internalType": "uint256",
              "name": "time",
              "type": "uint256"
            }
          ],
          "internalType": "struct Lottery.WinnerHistory[]",
          "name": "",
          "type": "tuple[]"
        }
      ],
      "stateMutability": "view",
      "type": "function"
    },
    {
      "inputs": [],
      "name": "getPlayers",
      "outputs": [
        {
          "internalType": "address[]",
          "name": "",
          "type": "address[]"
        }
      ],
      "stateMutability": "view",
      "type": "function"
    },
    {
      "inputs": [
        {
          "internalType": "uint256",
          "name": "",
          "type": "uint256"
        },
        {
          "internalType": "address",
          "name": "",
          "type": "address"
        }
      ],
      "name": "hasPlayedInRound",
      "outputs": [
        {
          "internalType": "bool",
          "name": "",
          "type": "bool"
        }
      ],
      "stateMutability": "view",
      "type": "function"
    },
    {
      "inputs": [
        {
          "internalType": "uint256",
          "name": "",
          "type": "uint256"
        }
      ],
      "name": "history",
      "outputs": [
        {
          "internalType": "uint256",
          "name": "round",
          "type": "uint256"
        },
        {
          "internalType": "address",
          "name": "winner",
          "type": "address"
        },
        {
          "internalType": "uint256",
          "name": "amount",
          "type": "uint256"
        },
        {
          "internalType": "bool",
          "name": "isJackpotHit",
          "type": "bool"
        },
        {
          "internalType": "uint256",
          "name": "time",
          "type": "uint256"
        }
      ],
      "stateMutability": "view",
      "type": "function"
    },
    {
      "inputs": [],
      "name": "jackpotPool",
      "outputs": [
        {
          "internalType": "uint256",
          "name": "",
          "type": "uint256"
        }
      ],
      "stateMutability": "view",
      "type": "function"
    },
    {
      "inputs": [],
      "name": "lotteryDuration",
      "outputs": [
        {
          "internalType": "uint256",
          "name": "",
          "type": "uint256"
        }
      ],
      "stateMutability": "view",
      "type": "function"
    },
    {
      "inputs": [],
      "name": "lotteryId",
      "outputs": [
        {
          "internalType": "uint256",
          "name": "",
          "type": "uint256"
        }
      ],
      "stateMutability": "view",
      "type": "function"
    },
    {
      "inputs": [],
      "name": "owner",
      "outputs": [
        {
          "internalType": "address",
          "name": "",
          "type": "address"
        }
      ],
      "stateMutability": "view",
      "type": "function"
    },
    {
      "inputs": [],
      "name": "pickWinner",
      "outputs": [],
      "stateMutability": "nonpayable",
      "type": "function"
    },
    {
      "inputs": [
        {
          "internalType": "uint256",
          "name": "",
          "type": "uint256"
        }
      ],
      "name": "players",
      "outputs": [
        {
          "internalType": "address",
          "name": "",
          "type": "address"
        }
      ],
      "stateMutability": "view",
      "type": "function"
    },
    {
      "inputs": [],
      "name": "renounceOwnership",
      "outputs": [],
      "stateMutability": "nonpayable",
      "type": "function"
    },
    {
      "inputs": [
        {
          "internalType": "uint256",
          "name": "_seconds",
          "type": "uint256"
        }
      ],
      "name": "setLotteryDuration",
      "outputs": [],
      "stateMutability": "nonpayable",
      "type": "function"
    },
    {
      "inputs": [],
      "name": "ticketPrice",
      "outputs": [
        {
          "internalType": "uint256",
          "name": "",
          "type": "uint256"
        }
      ],
      "stateMutability": "view",
      "type": "function"
    },
    {
      "inputs": [],
      "name": "token",
      "outputs": [
        {
          "internalType": "contract IERC20",
          "name": "",
          "type": "address"
        }
      ],
      "stateMutability": "view",
      "type": "function"
    },
    {
      "inputs": [
        {
          "internalType": "address",
          "name": "newOwner",
          "type": "address"
        }
      ],
      "name": "transferOwnership",
      "outputs": [],
      "stateMutability": "nonpayable",
      "type": "function"
    },
    {
      "inputs": [],
      "name": "uniquePlayersCount",
      "outputs": [
        {
          "internalType": "uint256",
          "name": "",
          "type": "uint256"
        }
      ],
      "stateMutability": "view",
      "type": "function"
    }
  ],
  "bytecode": "0x608060405260b460075534801561001557600080fd5b50604051612a63380380612a6383398181016040528101906100379190610253565b33600073ffffffffffffffffffffffffffffffffffffffff168173ffffffffffffffffffffffffffffffffffffffff16036100aa5760006040517f1e4fbdf70000000000000000000000000000000000000000000000000000000081526004016100a1919061028f565b60405180910390fd5b6100b98161012c60201b60201c565b5080600160006101000a81548173ffffffffffffffffffffffffffffffffffffffff021916908373ffffffffffffffffffffffffffffffffffffffff160217905550678ac7230489e8000060028190555060016003819055506007544261012091906102e3565b60068190555050610317565b60008060009054906101000a900473ffffffffffffffffffffffffffffffffffffffff169050816000806101000a81548173ffffffffffffffffffffffffffffffffffffffff021916908373ffffffffffffffffffffffffffffffffffffffff1602179055508173ffffffffffffffffffffffffffffffffffffffff168173ffffffffffffffffffffffffffffffffffffffff167f8be0079c531659141344cd1fd0a4f28419497f9722a3daafe3b4186f6b6457e060405160405180910390a35050565b600080fd5b600073ffffffffffffffffffffffffffffffffffffffff82169050919050565b6000610220826101f5565b9050919050565b61023081610215565b811461023b57600080fd5b50565b60008151905061024d81610227565b92915050565b600060208284031215610269576102686101f0565b5b60006102778482850161023e565b91505092915050565b61028981610215565b82525050565b60006020820190506102a46000830184610280565b92915050565b6000819050919050565b7f4e487b7100000000000000000000000000000000000000000000000000000000600052601160045260246000fd5b60006102ee826102aa565b91506102f9836102aa565b9250828201905080821115610311576103106102b4565b5b92915050565b61273d806103266000396000f3fe608060405234801561001057600080fd5b50600436106101585760003560e01c80639c364fc5116100c3578063d3ce01a91161007c578063d3ce01a914610377578063e580f47b14610395578063f2fde38b146103b3578063f71d96cb146103cf578063fc0c546a146103ff578063fdad3a5f1461041d57610158565b80639c364fc5146102ad578063a7a38f0b146102cb578063aa15efc8146102ff578063b05b32ae1461031d578063b145dffa1461033b578063ced9deae1461035957610158565b80635d495aea116101155780635d495aea146102215780636c7ad6da1461022b578063715018a61461024957806387a927ed146102535780638b5b9ccc146102715780638da5cb5b1461028f57610158565b80631209b1f61461015d5780632b58150b1461017b5780632d97902f146101975780633197cbb6146101b55780633604f55f146101d35780635b4e628b146101f1575b600080fd5b610165610439565b6040516101729190611b21565b60405180910390f35b61019560048036038101906101909190611b6d565b61043f565b005b61019f6104cc565b6040516101ac9190611b21565b60405180910390f35b6101bd6104d2565b6040516101ca9190611b21565b60405180910390f35b6101db6104d8565b6040516101e89190611b21565b60405180910390f35b61020b60048036038101906102069190611bf8565b610524565b6040516102189190611c53565b60405180910390f35b610229610553565b005b610233610fdf565b6040516102409190611b21565b60405180910390f35b610251610fe4565b005b61025b610ff8565b6040516102689190611b21565b60405180910390f35b610279611005565b6040516102869190611d2c565b60405180910390f35b610297611093565b6040516102a49190611d5d565b60405180910390f35b6102b56110bc565b6040516102c29190611b21565b60405180910390f35b6102e560048036038101906102e09190611b6d565b6110c1565b6040516102f6959493929190611d78565b60405180910390f35b610307611134565b6040516103149190611f00565b60405180910390f35b610325611222565b6040516103329190611b21565b60405180910390f35b610343611228565b6040516103509190611b21565b60405180910390f35b610361611236565b60405161036e9190611b21565b60405180910390f35b61037f61123b565b60405161038c9190611b21565b60405180910390f35b61039d611241565b6040516103aa9190611b21565b60405180910390f35b6103cd60048036038101906103c89190611f22565b611247565b005b6103e960048036038101906103e49190611b6d565b6112cd565b6040516103f69190611d5d565b60405180910390f35b61040761130c565b6040516104149190611fae565b60405180910390f35b61043760048036038101906104329190611bf8565b611332565b005b60025481565b6104476116d5565b603c81101561048b576040517f08c379a000000000000000000000000000000000000000000000000000000000815260040161048290612026565b60405180910390fd5b806007819055507f91abcc2d6823e3a3f11d31b208dd3065d2c6a791f1c7c9fe96a42ce12897eac5816040516104c19190611b21565b60405180910390a150565b60075481565b60065481565b60008068056bc75e2d631000006005546104f291906120a4565b9050600081600a61050391906120d5565b90506103e881111561051b576103e892505050610521565b80925050505b90565b60096020528160005260406000206020528060005260406000206000915091509054906101000a900460ff1681565b600654421015610598576040517f08c379a000000000000000000000000000000000000000000000000000000000815260040161058f90612155565b60405180910390fd5b6000600480549050111561068f5760006105b0611093565b73ffffffffffffffffffffffffffffffffffffffff163373ffffffffffffffffffffffffffffffffffffffff16149050600060096000600354815260200190815260200160002060003373ffffffffffffffffffffffffffffffffffffffff1673ffffffffffffffffffffffffffffffffffffffff16815260200190815260200160002060009054906101000a900460ff169050818061064d5750805b61068c576040517f08c379a0000000000000000000000000000000000000000000000000000000008152600401610683906121e7565b60405180910390fd5b50505b6000600480549050036107d857600a6040518060a001604052806003548152602001600073ffffffffffffffffffffffffffffffffffffffff168152602001600081526020016000151581526020014281525090806001815401808255809150506001900390600052602060002090600502016000909190919091506000820151816000015560208201518160010160006101000a81548173ffffffffffffffffffffffffffffffffffffffff021916908373ffffffffffffffffffffffffffffffffffffffff1602179055506040820151816002015560608201518160030160006101000a81548160ff0219169083151502179055506080820151816004015550507f33ebe9b70a0a586a9b100ea5b703fa19a1b445bc3458abdccc0e06a38a29f20b6003546040516107c39190611b21565b60405180910390a16107d361175c565b610fdd565b60006001436107e79190612207565b409050610100431180156107fd57506000801b81145b15610809574460001b90505b60008144426004805490506008543360405160200161082d969594939291906122cf565b60405160208183030381529060405280519060200120905060006004805490508260001c61085b919061233f565b905060006004828154811061087357610872612370565b5b9060005260206000200160009054906101000a900473ffffffffffffffffffffffffffffffffffffffff1690506000600160009054906101000a900473ffffffffffffffffffffffffffffffffffffffff1673ffffffffffffffffffffffffffffffffffffffff166370a08231306040518263ffffffff1660e01b81526004016108fd9190611d5d565b602060405180830381865afa15801561091a573d6000803e3d6000fd5b505050506040513d601f19601f8201168201806040525081019061093e91906123b4565b9050600554811015610985576040517f08c379a000000000000000000000000000000000000000000000000000000000815260040161097c9061242d565b60405180910390fd5b6000600554826109959190612207565b905060006004805490509050600082905060006103e8846109b691906120a4565b905060008060008060016008541115610a54576064600a896109d8919061244d565b6109e291906120a4565b915069021e19e0c9bab2400000826005546109fd91906120d5565b1115610a3957600060055469021e19e0c9bab2400000610a1d9190612207565b905069021e19e0c9bab240000060058190555080925050610a53565b8160056000828254610a4b91906120d5565b925050819055505b5b818589610a619190612207565b610a6b9190612207565b9250600360085410610af2576000610a816104d8565b905060008d8c600554604051602001610a9c9392919061248f565b60405160208183030381529060405280519060200120905060006127108260001c610ac7919061233f565b905082811015610aee576001935060055486610ae391906120d5565b955060006005819055505b5050505b6064600284610b01919061244d565b610b0b91906120a4565b93508383610b199190612207565b9250610b6f610b26611093565b86600160009054906101000a900473ffffffffffffffffffffffffffffffffffffffff1673ffffffffffffffffffffffffffffffffffffffff166117f29092919063ffffffff16565b610b77611093565b73ffffffffffffffffffffffffffffffffffffffff167f331cdf5510d650da5f1c8c6527a9069d43b82793b43ca224910e48c201e5275586600354604051610bc09291906124cc565b60405180910390a23373ffffffffffffffffffffffffffffffffffffffff168a73ffffffffffffffffffffffffffffffffffffffff1603610cfe57610c538a8585610c0b91906120d5565b600160009054906101000a900473ffffffffffffffffffffffffffffffffffffffff1673ffffffffffffffffffffffffffffffffffffffff166117f29092919063ffffffff16565b8973ffffffffffffffffffffffffffffffffffffffff167faf78905393a083cac46905a1ae0b6f313b823c758ebe95075edcbc6998bdb92f8460035484604051610c9f939291906124f5565b60405180910390a23373ffffffffffffffffffffffffffffffffffffffff167f0625b776bf72b3f6102ab91264809de2f7f74b2204f0bbb70d3465a0f20144c985600354604051610cf19291906124cc565b60405180910390a2610e3f565b610d4b3385600160009054906101000a900473ffffffffffffffffffffffffffffffffffffffff1673ffffffffffffffffffffffffffffffffffffffff166117f29092919063ffffffff16565b3373ffffffffffffffffffffffffffffffffffffffff167f0625b776bf72b3f6102ab91264809de2f7f74b2204f0bbb70d3465a0f20144c985600354604051610d959291906124cc565b60405180910390a2610dea8a84600160009054906101000a900473ffffffffffffffffffffffffffffffffffffffff1673ffffffffffffffffffffffffffffffffffffffff166117f29092919063ffffffff16565b8973ffffffffffffffffffffffffffffffffffffffff167faf78905393a083cac46905a1ae0b6f313b823c758ebe95075edcbc6998bdb92f8460035484604051610e36939291906124f5565b60405180910390a25b600a6040518060a0016040528060035481526020018c73ffffffffffffffffffffffffffffffffffffffff16815260200185815260200183151581526020014281525090806001815401808255809150506001900390600052602060002090600502016000909190919091506000820151816000015560208201518160010160006101000a81548173ffffffffffffffffffffffffffffffffffffffff021916908373ffffffffffffffffffffffffffffffffffffffff1602179055506040820151816002015560608201518160030160006101000a81548160ff0219169083151502179055506080820151816004015550508973ffffffffffffffffffffffffffffffffffffffff167f3fd24722acf42686982a4418156b8d655846de56892ab1f6b7a25c56659fe8e18483604051610f7a92919061252c565b60405180910390a27f68820806d7b9548f033c3b214e95b6d0465cb00732c4d5760639304a3d172c206003548b858a8a8787604051610fbf9796959493929190612555565b60405180910390a1610fcf61175c565b505050505050505050505050505b565b600a81565b610fec6116d5565b610ff66000611871565b565b68056bc75e2d6310000081565b6060600480548060200260200160405190810160405280929190818152602001828054801561108957602002820191906000526020600020905b8160009054906101000a900473ffffffffffffffffffffffffffffffffffffffff1673ffffffffffffffffffffffffffffffffffffffff168152602001906001019080831161103f575b5050505050905090565b60008060009054906101000a900473ffffffffffffffffffffffffffffffffffffffff16905090565b600381565b600a81815481106110d157600080fd5b90600052602060002090600502016000915090508060000154908060010160009054906101000a900473ffffffffffffffffffffffffffffffffffffffff16908060020154908060030160009054906101000a900460ff16908060040154905085565b6060600a805480602002602001604051908101604052809291908181526020016000905b8282101561121957838290600052602060002090600502016040518060a0016040529081600082015481526020016001820160009054906101000a900473ffffffffffffffffffffffffffffffffffffffff1673ffffffffffffffffffffffffffffffffffffffff1673ffffffffffffffffffffffffffffffffffffffff168152602001600282015481526020016003820160009054906101000a900460ff1615151515815260200160048201548152505081526020019060010190611158565b50505050905090565b60055481565b69021e19e0c9bab240000081565b600281565b60085481565b60035481565b61124f6116d5565b600073ffffffffffffffffffffffffffffffffffffffff168173ffffffffffffffffffffffffffffffffffffffff16036112c15760006040517f1e4fbdf70000000000000000000000000000000000000000000000000000000081526004016112b89190611d5d565b60405180910390fd5b6112ca81611871565b50565b600481815481106112dd57600080fd5b906000526020600020016000915054906101000a900473ffffffffffffffffffffffffffffffffffffffff1681565b600160009054906101000a900473ffffffffffffffffffffffffffffffffffffffff1681565b6006544210611376576040517f08c379a000000000000000000000000000000000000000000000000000000000815260040161136d90612610565b60405180910390fd5b600082600254611386919061244d565b90506113d7333083600160009054906101000a900473ffffffffffffffffffffffffffffffffffffffff1673ffffffffffffffffffffffffffffffffffffffff16611935909392919063ffffffff16565b60096000600354815260200190815260200160002060003373ffffffffffffffffffffffffffffffffffffffff1673ffffffffffffffffffffffffffffffffffffffff16815260200190815260200160002060009054906101000a900460ff166114bf57600160096000600354815260200190815260200160002060003373ffffffffffffffffffffffffffffffffffffffff1673ffffffffffffffffffffffffffffffffffffffff16815260200190815260200160002060006101000a81548160ff021916908315150217905550600860008154809291906114b990612630565b91905055505b60005b8381101561153a576004339080600181540180825580915050600190039060005260206000200160009091909190916101000a81548173ffffffffffffffffffffffffffffffffffffffff021916908373ffffffffffffffffffffffffffffffffffffffff16021790555080806001019150506114c2565b50600073ffffffffffffffffffffffffffffffffffffffff168273ffffffffffffffffffffffffffffffffffffffff16141580156115a457503373ffffffffffffffffffffffffffffffffffffffff168273ffffffffffffffffffffffffffffffffffffffff1614155b1561167e57600060646001836115ba919061244d565b6115c491906120a4565b90506116138382600160009054906101000a900473ffffffffffffffffffffffffffffffffffffffff1673ffffffffffffffffffffffffffffffffffffffff166117f29092919063ffffffff16565b3373ffffffffffffffffffffffffffffffffffffffff168373ffffffffffffffffffffffffffffffffffffffff167f71ab346f72e10bdab066fac22bf39c32cce54b9c488b80a4cc422d6b40bb9c07836003546040516116749291906124cc565b60405180910390a3505b3373ffffffffffffffffffffffffffffffffffffffff167f2a91574e12ad96234e84923e146b0946ecfb871cd8d5534dc1fdcbe87a7c01b3846003546040516116c89291906124cc565b60405180910390a2505050565b6116dd6119b7565b73ffffffffffffffffffffffffffffffffffffffff166116fb611093565b73ffffffffffffffffffffffffffffffffffffffff161461175a5761171e6119b7565b6040517f118cdaa70000000000000000000000000000000000000000000000000000000081526004016117519190611d5d565b60405180910390fd5b565b600067ffffffffffffffff81111561177757611776612678565b5b6040519080825280602002602001820160405280156117a55781602001602082028036833780820191505090505b50600490805190602001906117bb929190611a61565b506000600881905550600360008154809291906117d790612630565b9190505550600754426117ea91906120d5565b600681905550565b61186c838473ffffffffffffffffffffffffffffffffffffffff1663a9059cbb85856040516024016118259291906126a7565b604051602081830303815290604052915060e01b6020820180517bffffffffffffffffffffffffffffffffffffffffffffffffffffffff83818316178352505050506119bf565b505050565b60008060009054906101000a900473ffffffffffffffffffffffffffffffffffffffff169050816000806101000a81548173ffffffffffffffffffffffffffffffffffffffff021916908373ffffffffffffffffffffffffffffffffffffffff1602179055508173ffffffffffffffffffffffffffffffffffffffff168173ffffffffffffffffffffffffffffffffffffffff167f8be0079c531659141344cd1fd0a4f28419497f9722a3daafe3b4186f6b6457e060405160405180910390a35050565b6119b1848573ffffffffffffffffffffffffffffffffffffffff166323b872dd86868660405160240161196a939291906126d0565b604051602081830303815290604052915060e01b6020820180517bffffffffffffffffffffffffffffffffffffffffffffffffffffffff83818316178352505050506119bf565b50505050565b600033905090565b600080602060008451602086016000885af1806119e2576040513d6000823e3d81fd5b3d9250600051915050600082146119fd576001811415611a19565b60008473ffffffffffffffffffffffffffffffffffffffff163b145b15611a5b57836040517f5274afe7000000000000000000000000000000000000000000000000000000008152600401611a529190611d5d565b60405180910390fd5b50505050565b828054828255906000526020600020908101928215611ada579160200282015b82811115611ad95782518260006101000a81548173ffffffffffffffffffffffffffffffffffffffff021916908373ffffffffffffffffffffffffffffffffffffffff16021790555091602001919060010190611a81565b5b509050611ae79190611aeb565b5090565b5b80821115611b04576000816000905550600101611aec565b5090565b6000819050919050565b611b1b81611b08565b82525050565b6000602082019050611b366000830184611b12565b92915050565b600080fd5b611b4a81611b08565b8114611b5557600080fd5b50565b600081359050611b6781611b41565b92915050565b600060208284031215611b8357611b82611b3c565b5b6000611b9184828501611b58565b91505092915050565b600073ffffffffffffffffffffffffffffffffffffffff82169050919050565b6000611bc582611b9a565b9050919050565b611bd581611bba565b8114611be057600080fd5b50565b600081359050611bf281611bcc565b92915050565b60008060408385031215611c0f57611c0e611b3c565b5b6000611c1d85828601611b58565b9250506020611c2e85828601611be3565b9150509250929050565b60008115159050919050565b611c4d81611c38565b82525050565b6000602082019050611c686000830184611c44565b92915050565b600081519050919050565b600082825260208201905092915050565b6000819050602082019050919050565b611ca381611bba565b82525050565b6000611cb58383611c9a565b60208301905092915050565b6000602082019050919050565b6000611cd982611c6e565b611ce38185611c79565b9350611cee83611c8a565b8060005b83811015611d1f578151611d068882611ca9565b9750611d1183611cc1565b925050600181019050611cf2565b5085935050505092915050565b60006020820190508181036000830152611d468184611cce565b905092915050565b611d5781611bba565b82525050565b6000602082019050611d726000830184611d4e565b92915050565b600060a082019050611d8d6000830188611b12565b611d9a6020830187611d4e565b611da76040830186611b12565b611db46060830185611c44565b611dc16080830184611b12565b9695505050505050565b600081519050919050565b600082825260208201905092915050565b6000819050602082019050919050565b611e0081611b08565b82525050565b611e0f81611c38565b82525050565b60a082016000820151611e2b6000850182611df7565b506020820151611e3e6020850182611c9a565b506040820151611e516040850182611df7565b506060820151611e646060850182611e06565b506080820151611e776080850182611df7565b50505050565b6000611e898383611e15565b60a08301905092915050565b6000602082019050919050565b6000611ead82611dcb565b611eb78185611dd6565b9350611ec283611de7565b8060005b83811015611ef3578151611eda8882611e7d565b9750611ee583611e95565b925050600181019050611ec6565b5085935050505092915050565b60006020820190508181036000830152611f1a8184611ea2565b905092915050565b600060208284031215611f3857611f37611b3c565b5b6000611f4684828501611be3565b91505092915050565b6000819050919050565b6000611f74611f6f611f6a84611b9a565b611f4f565b611b9a565b9050919050565b6000611f8682611f59565b9050919050565b6000611f9882611f7b565b9050919050565b611fa881611f8d565b82525050565b6000602082019050611fc36000830184611f9f565b92915050565b600082825260208201905092915050565b7f54686f69206769616e20717561206e67616e0000000000000000000000000000600082015250565b6000612010601283611fc9565b915061201b82611fda565b602082019050919050565b6000602082019050818103600083015261203f81612003565b9050919050565b7f4e487b7100000000000000000000000000000000000000000000000000000000600052601260045260246000fd5b7f4e487b7100000000000000000000000000000000000000000000000000000000600052601160045260246000fd5b60006120af82611b08565b91506120ba83611b08565b9250826120ca576120c9612046565b5b828204905092915050565b60006120e082611b08565b91506120eb83611b08565b925082820190508082111561210357612102612075565b5b92915050565b7f43687561206865742067696f0000000000000000000000000000000000000000600082015250565b600061213f600c83611fc9565b915061214a82612109565b602082019050919050565b6000602082019050818103600083015261216e81612132565b9050919050565b7f4368692061646d696e20686f6163206e67756f692063686f69206d6f6920647560008201527f6f63207175617920736f00000000000000000000000000000000000000000000602082015250565b60006121d1602a83611fc9565b91506121dc82612175565b604082019050919050565b60006020820190508181036000830152612200816121c4565b9050919050565b600061221282611b08565b915061221d83611b08565b925082820390508181111561223557612234612075565b5b92915050565b6000819050919050565b6000819050919050565b61226061225b8261223b565b612245565b82525050565b6000819050919050565b61228161227c82611b08565b612266565b82525050565b60008160601b9050919050565b600061229f82612287565b9050919050565b60006122b182612294565b9050919050565b6122c96122c482611bba565b6122a6565b82525050565b60006122db828961224f565b6020820191506122eb8288612270565b6020820191506122fb8287612270565b60208201915061230b8286612270565b60208201915061231b8285612270565b60208201915061232b82846122b8565b601482019150819050979650505050505050565b600061234a82611b08565b915061235583611b08565b92508261236557612364612046565b5b828206905092915050565b7f4e487b7100000000000000000000000000000000000000000000000000000000600052603260045260246000fd5b6000815190506123ae81611b41565b92915050565b6000602082840312156123ca576123c9611b3c565b5b60006123d88482850161239f565b91505092915050565b7f4661696c65643a205468696575207175792063686f206a61636b706f74000000600082015250565b6000612417601d83611fc9565b9150612422826123e1565b602082019050919050565b600060208201905081810360008301526124468161240a565b9050919050565b600061245882611b08565b915061246383611b08565b925082820261247181611b08565b9150828204841483151761248857612487612075565b5b5092915050565b600061249b828661224f565b6020820191506124ab82856122b8565b6014820191506124bb8284612270565b602082019150819050949350505050565b60006040820190506124e16000830185611b12565b6124ee6020830184611b12565b9392505050565b600060608201905061250a6000830186611b12565b6125176020830185611b12565b6125246040830184611c44565b949350505050565b60006040820190506125416000830185611b12565b61254e6020830184611c44565b9392505050565b600060e08201905061256a600083018a611b12565b6125776020830189611d4e565b6125846040830188611b12565b6125916060830187611b12565b61259e6080830186611b12565b6125ab60a0830185611b12565b6125b860c0830184611c44565b98975050505050505050565b7f566f6e672063686f69206461206b657420746875630000000000000000000000600082015250565b60006125fa601583611fc9565b9150612605826125c4565b602082019050919050565b60006020820190508181036000830152612629816125ed565b9050919050565b600061263b82611b08565b91507fffffffffffffffffffffffffffffffffffffffffffffffffffffffffffffffff820361266d5761266c612075565b5b600182019050919050565b7f4e487b7100000000000000000000000000000000000000000000000000000000600052604160045260246000fd5b60006040820190506126bc6000830185611d4e565b6126c96020830184611b12565b9392505050565b60006060820190506126e56000830186611d4e565b6126f26020830185611d4e565b6126ff6040830184611b12565b94935050505056fea2646970667358221220237de2027164a181e6ecb3c00be5f43e950ed617215933c6778a74d2c60c613664736f6c634300081c0033",
  "linkReferences": {},
  "deployedLinkReferences": {}
}