{
  "_format": "hh-sol-artifact-1",
  "contractName": "Lottery",
  "sourceName": "contracts/Lottery.sol",
  "abi": [
    {
      "inputs": [
        {
          "internalType": "address",
          "name": "_tokenAddress",
          "type": "address"
        }
      ],
      "stateMutability": "nonpayable",
      "type": "constructor"
    },
    {
      "inputs": [
        {
          "internalType": "address",
          "name": "owner",
          "type": "address"
        }
      ],
      "name": "OwnableInvalidOwner",
      "type": "error"
    },
    {
      "inputs": [
        {
          "internalType": "address",
          "name": "account",
          "type": "address"
        }
      ],
      "name": "OwnableUnauthorizedAccount",
      "type": "error"
    },
    {
      "anonymous": false,
      "inputs": [
        {
          "indexed": true,
          "internalType": "address",
          "name": "previousOwner",
          "type": "address"
        },
        {
          "indexed": true,
          "internalType": "address",
          "name": "newOwner",
          "type": "address"
        }
      ],
      "name": "OwnershipTransferred",
      "type": "event"
    },
    {
      "anonymous": false,
      "inputs": [
        {
          "indexed": false,
          "internalType": "uint256",
          "name": "round",
          "type": "uint256"
        }
      ],
      "name": "RoundEndedEmpty",
      "type": "event"
    },
    {
      "anonymous": false,
      "inputs": [
        {
          "indexed": true,
          "internalType": "address",
          "name": "player",
          "type": "address"
        },
        {
          "indexed": false,
          "internalType": "uint256",
          "name": "amount",
          "type": "uint256"
        }
      ],
      "name": "TicketPurchased",
      "type": "event"
    },
    {
      "anonymous": false,
      "inputs": [
        {
          "indexed": true,
          "internalType": "address",
          "name": "winner",
          "type": "address"
        },
        {
          "indexed": false,
          "internalType": "uint256",
          "name": "amount",
          "type": "uint256"
        },
        {
          "indexed": false,
          "internalType": "bool",
          "name": "isJackpotHit",
          "type": "bool"
        }
      ],
      "name": "WinnerPicked",
      "type": "event"
    },
    {
      "inputs": [],
      "name": "BASE_JACKPOT_CHANCE",
      "outputs": [
        {
          "internalType": "uint256",
          "name": "",
          "type": "uint256"
        }
      ],
      "stateMutability": "view",
      "type": "function"
    },
    {
      "inputs": [],
      "name": "CHANCE_DIVISOR",
      "outputs": [
        {
          "internalType": "uint256",
          "name": "",
          "type": "uint256"
        }
      ],
      "stateMutability": "view",
      "type": "function"
    },
    {
      "inputs": [],
      "name": "LOTTERY_DURATION",
      "outputs": [
        {
          "internalType": "uint256",
          "name": "",
          "type": "uint256"
        }
      ],
      "stateMutability": "view",
      "type": "function"
    },
    {
      "inputs": [
        {
          "internalType": "uint256",
          "name": "_quantity",
          "type": "uint256"
        },
        {
          "internalType": "address",
          "name": "_referrer",
          "type": "address"
        }
      ],
      "name": "buyTickets",
      "outputs": [],
      "stateMutability": "nonpayable",
      "type": "function"
    },
    {
      "inputs": [],
      "name": "endTime",
      "outputs": [
        {
          "internalType": "uint256",
          "name": "",
          "type": "uint256"
        }
      ],
      "stateMutability": "view",
      "type": "function"
    },
    {
      "inputs": [],
      "name": "getCurrentJackpotChance",
      "outputs": [
        {
          "internalType": "uint256",
          "name": "",
          "type": "uint256"
        }
      ],
      "stateMutability": "view",
      "type": "function"
    },
    {
      "inputs": [],
      "name": "getHistory",
      "outputs": [
        {
          "components": [
            {
              "internalType": "uint256",
              "name": "round",
              "type": "uint256"
            },
            {
              "internalType": "address",
              "name": "winner",
              "type": "address"
            },
            {
              "internalType": "uint256",
              "name": "amount",
              "type": "uint256"
            },
            {
              "internalType": "bool",
              "name": "isJackpotHit",
              "type": "bool"
            },
            {
              "internalType": "uint256",
              "name": "time",
              "type": "uint256"
            }
          ],
          "internalType": "struct Lottery.WinnerHistory[]",
          "name": "",
          "type": "tuple[]"
        }
      ],
      "stateMutability": "view",
      "type": "function"
    },
    {
      "inputs": [],
      "name": "getPlayers",
      "outputs": [
        {
          "internalType": "address[]",
          "name": "",
          "type": "address[]"
        }
      ],
      "stateMutability": "view",
      "type": "function"
    },
    {
      "inputs": [
        {
          "internalType": "uint256",
          "name": "",
          "type": "uint256"
        },
        {
          "internalType": "address",
          "name": "",
          "type": "address"
        }
      ],
      "name": "hasPlayedInRound",
      "outputs": [
        {
          "internalType": "bool",
          "name": "",
          "type": "bool"
        }
      ],
      "stateMutability": "view",
      "type": "function"
    },
    {
      "inputs": [
        {
          "internalType": "uint256",
          "name": "",
          "type": "uint256"
        }
      ],
      "name": "history",
      "outputs": [
        {
          "internalType": "uint256",
          "name": "round",
          "type": "uint256"
        },
        {
          "internalType": "address",
          "name": "winner",
          "type": "address"
        },
        {
          "internalType": "uint256",
          "name": "amount",
          "type": "uint256"
        },
        {
          "internalType": "bool",
          "name": "isJackpotHit",
          "type": "bool"
        },
        {
          "internalType": "uint256",
          "name": "time",
          "type": "uint256"
        }
      ],
      "stateMutability": "view",
      "type": "function"
    },
    {
      "inputs": [],
      "name": "jackpotPool",
      "outputs": [
        {
          "internalType": "uint256",
          "name": "",
          "type": "uint256"
        }
      ],
      "stateMutability": "view",
      "type": "function"
    },
    {
      "inputs": [],
      "name": "lotteryId",
      "outputs": [
        {
          "internalType": "uint256",
          "name": "",
          "type": "uint256"
        }
      ],
      "stateMutability": "view",
      "type": "function"
    },
    {
      "inputs": [],
      "name": "owner",
      "outputs": [
        {
          "internalType": "address",
          "name": "",
          "type": "address"
        }
      ],
      "stateMutability": "view",
      "type": "function"
    },
    {
      "inputs": [],
      "name": "pickWinner",
      "outputs": [],
      "stateMutability": "nonpayable",
      "type": "function"
    },
    {
      "inputs": [
        {
          "internalType": "uint256",
          "name": "",
          "type": "uint256"
        }
      ],
      "name": "players",
      "outputs": [
        {
          "internalType": "address",
          "name": "",
          "type": "address"
        }
      ],
      "stateMutability": "view",
      "type": "function"
    },
    {
      "inputs": [],
      "name": "renounceOwnership",
      "outputs": [],
      "stateMutability": "nonpayable",
      "type": "function"
    },
    {
      "inputs": [],
      "name": "ticketPrice",
      "outputs": [
        {
          "internalType": "uint256",
          "name": "",
          "type": "uint256"
        }
      ],
      "stateMutability": "view",
      "type": "function"
    },
    {
      "inputs": [],
      "name": "token",
      "outputs": [
        {
          "internalType": "contract IERC20",
          "name": "",
          "type": "address"
        }
      ],
      "stateMutability": "view",
      "type": "function"
    },
    {
      "inputs": [
        {
          "internalType": "address",
          "name": "newOwner",
          "type": "address"
        }
      ],
      "name": "transferOwnership",
      "outputs": [],
      "stateMutability": "nonpayable",
      "type": "function"
    },
    {
      "inputs": [],
      "name": "uniquePlayersCount",
      "outputs": [
        {
          "internalType": "uint256",
          "name": "",
          "type": "uint256"
        }
      ],
      "stateMutability": "view",
      "type": "function"
    }
  ],
  "bytecode": "0x608060405234801561001057600080fd5b506040516120653803806120658339818101604052810190610032919061024d565b33600073ffffffffffffffffffffffffffffffffffffffff168173ffffffffffffffffffffffffffffffffffffffff16036100a55760006040517f1e4fbdf700000000000000000000000000000000000000000000000000000000815260040161009c9190610289565b60405180910390fd5b6100b48161012660201b60201c565b5080600160006101000a81548173ffffffffffffffffffffffffffffffffffffffff021916908373ffffffffffffffffffffffffffffffffffffffff160217905550678ac7230489e80000600281905550600160038190555060784261011a91906102dd565b60068190555050610311565b60008060009054906101000a900473ffffffffffffffffffffffffffffffffffffffff169050816000806101000a81548173ffffffffffffffffffffffffffffffffffffffff021916908373ffffffffffffffffffffffffffffffffffffffff1602179055508173ffffffffffffffffffffffffffffffffffffffff168173ffffffffffffffffffffffffffffffffffffffff167f8be0079c531659141344cd1fd0a4f28419497f9722a3daafe3b4186f6b6457e060405160405180910390a35050565b600080fd5b600073ffffffffffffffffffffffffffffffffffffffff82169050919050565b600061021a826101ef565b9050919050565b61022a8161020f565b811461023557600080fd5b50565b60008151905061024781610221565b92915050565b600060208284031215610263576102626101ea565b5b600061027184828501610238565b91505092915050565b6102838161020f565b82525050565b600060208201905061029e600083018461027a565b92915050565b6000819050919050565b7f4e487b7100000000000000000000000000000000000000000000000000000000600052601160045260246000fd5b60006102e8826102a4565b91506102f3836102a4565b925082820190508082111561030b5761030a6102ae565b5b92915050565b611d45806103206000396000f3fe608060405234801561001057600080fd5b506004361061012c5760003560e01c80638da5cb5b116100ad578063e580f47b11610071578063e580f47b146102f3578063f2fde38b14610311578063f71d96cb1461032d578063fc0c546a1461035d578063fdad3a5f1461037b5761012c565b80638da5cb5b14610247578063a7a38f0b14610265578063aa15efc814610299578063b05b32ae146102b7578063d3ce01a9146102d55761012c565b80635d495aea116100f45780635d495aea146101d95780636c7ad6da146101e3578063715018a61461020157806387a927ed1461020b5780638b5b9ccc146102295761012c565b80631209b1f6146101315780631b1e47b41461014f5780633197cbb61461016d5780633604f55f1461018b5780635b4e628b146101a9575b600080fd5b610139610397565b6040516101469190611396565b60405180910390f35b61015761039d565b6040516101649190611396565b60405180910390f35b6101756103a2565b6040516101829190611396565b60405180910390f35b6101936103a8565b6040516101a09190611396565b60405180910390f35b6101c360048036038101906101be9190611440565b6103f4565b6040516101d0919061149b565b60405180910390f35b6101e1610423565b005b6101eb610a96565b6040516101f89190611396565b60405180910390f35b610209610a9b565b005b610213610aaf565b6040516102209190611396565b60405180910390f35b610231610abc565b60405161023e9190611574565b60405180910390f35b61024f610b4a565b60405161025c91906115a5565b60405180910390f35b61027f600480360381019061027a91906115c0565b610b73565b6040516102909594939291906115ed565b60405180910390f35b6102a1610be6565b6040516102ae9190611775565b60405180910390f35b6102bf610cd4565b6040516102cc9190611396565b60405180910390f35b6102dd610cda565b6040516102ea9190611396565b60405180910390f35b6102fb610ce0565b6040516103089190611396565b60405180910390f35b61032b60048036038101906103269190611797565b610ce6565b005b610347600480360381019061034291906115c0565b610d6c565b60405161035491906115a5565b60405180910390f35b610365610dab565b6040516103729190611823565b60405180910390f35b61039560048036038101906103909190611440565b610dd1565b005b60025481565b607881565b60065481565b60008068056bc75e2d631000006005546103c2919061189c565b9050600081600a6103d391906118cd565b90506113888111156103eb57611388925050506103f1565b80925050505b90565b60086020528160005260406000206020528060005260406000206000915091509054906101000a900460ff1681565b600654421015610468576040517f08c379a000000000000000000000000000000000000000000000000000000000815260040161045f9061195e565b60405180910390fd5b6000600480549050036105b15760096040518060a001604052806003548152602001600073ffffffffffffffffffffffffffffffffffffffff168152602001600081526020016000151581526020014281525090806001815401808255809150506001900390600052602060002090600502016000909190919091506000820151816000015560208201518160010160006101000a81548173ffffffffffffffffffffffffffffffffffffffff021916908373ffffffffffffffffffffffffffffffffffffffff1602179055506040820151816002015560608201518160030160006101000a81548160ff0219169083151502179055506080820151816004015550507f33ebe9b70a0a586a9b100ea5b703fa19a1b445bc3458abdccc0e06a38a29f20b60035460405161059c9190611396565b60405180910390a16105ac6111a9565b610a94565b600060048054905042600480549050446040516020016105d39392919061199f565b6040516020818303038152906040528051906020012060001c6105f691906119dc565b905060006004828154811061060e5761060d611a0d565b5b9060005260206000200160009054906101000a900473ffffffffffffffffffffffffffffffffffffffff1690506000600160009054906101000a900473ffffffffffffffffffffffffffffffffffffffff1673ffffffffffffffffffffffffffffffffffffffff166370a08231306040518263ffffffff1660e01b815260040161069891906115a5565b602060405180830381865afa1580156106b5573d6000803e3d6000fd5b505050506040513d601f19601f820116820180604052508101906106d99190611a51565b9050600060646001836106ec9190611a7e565b6106f6919061189c565b9050600080600160075411156107ea57600060646014866107179190611a7e565b610721919061189c565b9050806005600082825461073591906118cd565b9250508190555060006107466103a8565b90506000612710428960055460405160200161076493929190611b08565b6040516020818303038152906040528051906020012060001c61078791906119dc565b9050818110156107c857600193506005548387896107a59190611b45565b6107af9190611b45565b6107b991906118cd565b945060006005819055506107e2565b8286886107d59190611b45565b6107df9190611b45565b94505b5050506107f9565b82846107f69190611b45565b91505b600160009054906101000a900473ffffffffffffffffffffffffffffffffffffffff1673ffffffffffffffffffffffffffffffffffffffff1663a9059cbb61083f610b4a565b856040518363ffffffff1660e01b815260040161085d929190611b79565b6020604051808303816000875af115801561087c573d6000803e3d6000fd5b505050506040513d601f19601f820116820180604052508101906108a09190611bce565b50600160009054906101000a900473ffffffffffffffffffffffffffffffffffffffff1673ffffffffffffffffffffffffffffffffffffffff1663a9059cbb86846040518363ffffffff1660e01b81526004016108fe929190611b79565b6020604051808303816000875af115801561091d573d6000803e3d6000fd5b505050506040513d601f19601f820116820180604052508101906109419190611bce565b5060096040518060a0016040528060035481526020018773ffffffffffffffffffffffffffffffffffffffff16815260200184815260200183151581526020014281525090806001815401808255809150506001900390600052602060002090600502016000909190919091506000820151816000015560208201518160010160006101000a81548173ffffffffffffffffffffffffffffffffffffffff021916908373ffffffffffffffffffffffffffffffffffffffff1602179055506040820151816002015560608201518160030160006101000a81548160ff0219169083151502179055506080820151816004015550508473ffffffffffffffffffffffffffffffffffffffff167f3fd24722acf42686982a4418156b8d655846de56892ab1f6b7a25c56659fe8e18383604051610a7d929190611bfb565b60405180910390a2610a8d6111a9565b5050505050505b565b600a81565b610aa36111ec565b610aad6000611273565b565b68056bc75e2d6310000081565b60606004805480602002602001604051908101604052809291908181526020018280548015610b4057602002820191906000526020600020905b8160009054906101000a900473ffffffffffffffffffffffffffffffffffffffff1673ffffffffffffffffffffffffffffffffffffffff1681526020019060010190808311610af6575b5050505050905090565b60008060009054906101000a900473ffffffffffffffffffffffffffffffffffffffff16905090565b60098181548110610b8357600080fd5b90600052602060002090600502016000915090508060000154908060010160009054906101000a900473ffffffffffffffffffffffffffffffffffffffff16908060020154908060030160009054906101000a900460ff16908060040154905085565b60606009805480602002602001604051908101604052809291908181526020016000905b82821015610ccb57838290600052602060002090600502016040518060a0016040529081600082015481526020016001820160009054906101000a900473ffffffffffffffffffffffffffffffffffffffff1673ffffffffffffffffffffffffffffffffffffffff1673ffffffffffffffffffffffffffffffffffffffff168152602001600282015481526020016003820160009054906101000a900460ff1615151515815260200160048201548152505081526020019060010190610c0a565b50505050905090565b60055481565b60075481565b60035481565b610cee6111ec565b600073ffffffffffffffffffffffffffffffffffffffff168173ffffffffffffffffffffffffffffffffffffffff1603610d605760006040517f1e4fbdf7000000000000000000000000000000000000000000000000000000008152600401610d5791906115a5565b60405180910390fd5b610d6981611273565b50565b60048181548110610d7c57600080fd5b906000526020600020016000915054906101000a900473ffffffffffffffffffffffffffffffffffffffff1681565b600160009054906101000a900473ffffffffffffffffffffffffffffffffffffffff1681565b6006544210610e15576040517f08c379a0000000000000000000000000000000000000000000000000000000008152600401610e0c90611c70565b60405180910390fd5b600082600254610e259190611a7e565b9050600160009054906101000a900473ffffffffffffffffffffffffffffffffffffffff1673ffffffffffffffffffffffffffffffffffffffff166323b872dd3330846040518463ffffffff1660e01b8152600401610e8693929190611c90565b6020604051808303816000875af1158015610ea5573d6000803e3d6000fd5b505050506040513d601f19601f82011682018060405250810190610ec99190611bce565b5060086000600354815260200190815260200160002060003373ffffffffffffffffffffffffffffffffffffffff1673ffffffffffffffffffffffffffffffffffffffff16815260200190815260200160002060009054906101000a900460ff16610fb257600160086000600354815260200190815260200160002060003373ffffffffffffffffffffffffffffffffffffffff1673ffffffffffffffffffffffffffffffffffffffff16815260200190815260200160002060006101000a81548160ff02191690831515021790555060076000815480929190610fac90611cc7565b91905055505b60005b8381101561102d576004339080600181540180825580915050600190039060005260206000200160009091909190916101000a81548173ffffffffffffffffffffffffffffffffffffffff021916908373ffffffffffffffffffffffffffffffffffffffff1602179055508080600101915050610fb5565b50600073ffffffffffffffffffffffffffffffffffffffff168273ffffffffffffffffffffffffffffffffffffffff161415801561109757503373ffffffffffffffffffffffffffffffffffffffff168273ffffffffffffffffffffffffffffffffffffffff1614155b1561115657600160009054906101000a900473ffffffffffffffffffffffffffffffffffffffff1673ffffffffffffffffffffffffffffffffffffffff1663a9059cbb836064600a856110ea9190611a7e565b6110f4919061189c565b6040518363ffffffff1660e01b8152600401611111929190611b79565b6020604051808303816000875af1158015611130573d6000803e3d6000fd5b505050506040513d601f19601f820116820180604052508101906111549190611bce565b505b3373ffffffffffffffffffffffffffffffffffffffff167f0668f5b446eb814fe35b3206f43f14bd8567ba04ddaf7a3ee56516929ab22ccb8460405161119c9190611396565b60405180910390a2505050565b600460006111b7919061133f565b6000600781905550600360008154809291906111d290611cc7565b91905055506078426111e491906118cd565b600681905550565b6111f4611337565b73ffffffffffffffffffffffffffffffffffffffff16611212610b4a565b73ffffffffffffffffffffffffffffffffffffffff161461127157611235611337565b6040517f118cdaa700000000000000000000000000000000000000000000000000000000815260040161126891906115a5565b60405180910390fd5b565b60008060009054906101000a900473ffffffffffffffffffffffffffffffffffffffff169050816000806101000a81548173ffffffffffffffffffffffffffffffffffffffff021916908373ffffffffffffffffffffffffffffffffffffffff1602179055508173ffffffffffffffffffffffffffffffffffffffff168173ffffffffffffffffffffffffffffffffffffffff167f8be0079c531659141344cd1fd0a4f28419497f9722a3daafe3b4186f6b6457e060405160405180910390a35050565b600033905090565b508054600082559060005260206000209081019061135d9190611360565b50565b5b80821115611379576000816000905550600101611361565b5090565b6000819050919050565b6113908161137d565b82525050565b60006020820190506113ab6000830184611387565b92915050565b600080fd5b6113bf8161137d565b81146113ca57600080fd5b50565b6000813590506113dc816113b6565b92915050565b600073ffffffffffffffffffffffffffffffffffffffff82169050919050565b600061140d826113e2565b9050919050565b61141d81611402565b811461142857600080fd5b50565b60008135905061143a81611414565b92915050565b60008060408385031215611457576114566113b1565b5b6000611465858286016113cd565b92505060206114768582860161142b565b9150509250929050565b60008115159050919050565b61149581611480565b82525050565b60006020820190506114b0600083018461148c565b92915050565b600081519050919050565b600082825260208201905092915050565b6000819050602082019050919050565b6114eb81611402565b82525050565b60006114fd83836114e2565b60208301905092915050565b6000602082019050919050565b6000611521826114b6565b61152b81856114c1565b9350611536836114d2565b8060005b8381101561156757815161154e88826114f1565b975061155983611509565b92505060018101905061153a565b5085935050505092915050565b6000602082019050818103600083015261158e8184611516565b905092915050565b61159f81611402565b82525050565b60006020820190506115ba6000830184611596565b92915050565b6000602082840312156115d6576115d56113b1565b5b60006115e4848285016113cd565b91505092915050565b600060a0820190506116026000830188611387565b61160f6020830187611596565b61161c6040830186611387565b611629606083018561148c565b6116366080830184611387565b9695505050505050565b600081519050919050565b600082825260208201905092915050565b6000819050602082019050919050565b6116758161137d565b82525050565b61168481611480565b82525050565b60a0820160008201516116a0600085018261166c565b5060208201516116b360208501826114e2565b5060408201516116c6604085018261166c565b5060608201516116d9606085018261167b565b5060808201516116ec608085018261166c565b50505050565b60006116fe838361168a565b60a08301905092915050565b6000602082019050919050565b600061172282611640565b61172c818561164b565b93506117378361165c565b8060005b8381101561176857815161174f88826116f2565b975061175a8361170a565b92505060018101905061173b565b5085935050505092915050565b6000602082019050818103600083015261178f8184611717565b905092915050565b6000602082840312156117ad576117ac6113b1565b5b60006117bb8482850161142b565b91505092915050565b6000819050919050565b60006117e96117e46117df846113e2565b6117c4565b6113e2565b9050919050565b60006117fb826117ce565b9050919050565b600061180d826117f0565b9050919050565b61181d81611802565b82525050565b60006020820190506118386000830184611814565b92915050565b7f4e487b7100000000000000000000000000000000000000000000000000000000600052601260045260246000fd5b7f4e487b7100000000000000000000000000000000000000000000000000000000600052601160045260246000fd5b60006118a78261137d565b91506118b28361137d565b9250826118c2576118c161183e565b5b828204905092915050565b60006118d88261137d565b91506118e38361137d565b92508282019050808211156118fb576118fa61186d565b5b92915050565b600082825260208201905092915050565b7f43687561206865742067696f0000000000000000000000000000000000000000600082015250565b6000611948600c83611901565b915061195382611912565b602082019050919050565b600060208201905081810360008301526119778161193b565b9050919050565b6000819050919050565b6119996119948261137d565b61197e565b82525050565b60006119ab8286611988565b6020820191506119bb8285611988565b6020820191506119cb8284611988565b602082019150819050949350505050565b60006119e78261137d565b91506119f28361137d565b925082611a0257611a0161183e565b5b828206905092915050565b7f4e487b7100000000000000000000000000000000000000000000000000000000600052603260045260246000fd5b600081519050611a4b816113b6565b92915050565b600060208284031215611a6757611a666113b1565b5b6000611a7584828501611a3c565b91505092915050565b6000611a898261137d565b9150611a948361137d565b9250828202611aa28161137d565b91508282048414831517611ab957611ab861186d565b5b5092915050565b60008160601b9050919050565b6000611ad882611ac0565b9050919050565b6000611aea82611acd565b9050919050565b611b02611afd82611402565b611adf565b82525050565b6000611b148286611988565b602082019150611b248285611af1565b601482019150611b348284611988565b602082019150819050949350505050565b6000611b508261137d565b9150611b5b8361137d565b9250828203905081811115611b7357611b7261186d565b5b92915050565b6000604082019050611b8e6000830185611596565b611b9b6020830184611387565b9392505050565b611bab81611480565b8114611bb657600080fd5b50565b600081519050611bc881611ba2565b92915050565b600060208284031215611be457611be36113b1565b5b6000611bf284828501611bb9565b91505092915050565b6000604082019050611c106000830185611387565b611c1d602083018461148c565b9392505050565b7f566f6e672063686f69206461206b657420746875630000000000000000000000600082015250565b6000611c5a601583611901565b9150611c6582611c24565b602082019050919050565b60006020820190508181036000830152611c8981611c4d565b9050919050565b6000606082019050611ca56000830186611596565b611cb26020830185611596565b611cbf6040830184611387565b949350505050565b6000611cd28261137d565b91507fffffffffffffffffffffffffffffffffffffffffffffffffffffffffffffffff8203611d0457611d0361186d565b5b60018201905091905056fea2646970667358221220df443caac5a64bf39d7349b3f10d26f4b0bed7901a42b6a8adb01efc4df24a2264736f6c634300081c0033",
  "linkReferences": {},
  "deployedLinkReferences": {}
}