{
    "_format": "hh-sol-artifact-1",
    "contractName": "TokenExchanger",
    "sourceName": "contracts/TokenExchanger.sol",
    "abi": [
        {
            "inputs": [
                {
                    "internalType": "address",
                    "name": "_tokenAddress",
                    "type": "address"
                }
            ],
            "stateMutability": "nonpayable",
            "type": "constructor"
        },
        {
            "inputs": [
                {
                    "internalType": "address",
                    "name": "owner",
                    "type": "address"
                }
            ],
            "name": "OwnableInvalidOwner",
            "type": "error"
        },
        {
            "inputs": [
                {
                    "internalType": "address",
                    "name": "account",
                    "type": "address"
                }
            ],
            "name": "OwnableUnauthorizedAccount",
            "type": "error"
        },
        {
            "anonymous": false,
            "inputs": [
                {
                    "indexed": false,
                    "internalType": "uint256",
                    "name": "ethAmount",
                    "type": "uint256"
                }
            ],
            "name": "FeesWithdrawn",
            "type": "event"
        },
        {
            "anonymous": false,
            "inputs": [
                {
                    "indexed": false,
                    "internalType": "uint256",
                    "name": "ethAmount",
                    "type": "uint256"
                }
            ],
            "name": "LiquidityAdded",
            "type": "event"
        },
        {
            "anonymous": false,
            "inputs": [
                {
                    "indexed": true,
                    "internalType": "address",
                    "name": "previousOwner",
                    "type": "address"
                },
                {
                    "indexed": true,
                    "internalType": "address",
                    "name": "newOwner",
                    "type": "address"
                }
            ],
            "name": "OwnershipTransferred",
            "type": "event"
        },
        {
            "anonymous": false,
            "inputs": [
                {
                    "indexed": true,
                    "internalType": "address",
                    "name": "buyer",
                    "type": "address"
                },
                {
                    "indexed": false,
                    "internalType": "uint256",
                    "name": "ethAmount",
                    "type": "uint256"
                },
                {
                    "indexed": false,
                    "internalType": "uint256",
                    "name": "tokenAmount",
                    "type": "uint256"
                }
            ],
            "name": "TokensPurchased",
            "type": "event"
        },
        {
            "anonymous": false,
            "inputs": [
                {
                    "indexed": true,
                    "internalType": "address",
                    "name": "seller",
                    "type": "address"
                },
                {
                    "indexed": false,
                    "internalType": "uint256",
                    "name": "tokenAmount",
                    "type": "uint256"
                },
                {
                    "indexed": false,
                    "internalType": "uint256",
                    "name": "ethAmount",
                    "type": "uint256"
                },
                {
                    "indexed": false,
                    "internalType": "uint256",
                    "name": "fee",
                    "type": "uint256"
                }
            ],
            "name": "TokensSold",
            "type": "event"
        },
        {
            "inputs": [],
            "name": "FEE_DENOMINATOR",
            "outputs": [
                {
                    "internalType": "uint256",
                    "name": "",
                    "type": "uint256"
                }
            ],
            "stateMutability": "view",
            "type": "function"
        },
        {
            "inputs": [],
            "name": "RATE",
            "outputs": [
                {
                    "internalType": "uint256",
                    "name": "",
                    "type": "uint256"
                }
            ],
            "stateMutability": "view",
            "type": "function"
        },
        {
            "inputs": [],
            "name": "SELL_FEE_NUMERATOR",
            "outputs": [
                {
                    "internalType": "uint256",
                    "name": "",
                    "type": "uint256"
                }
            ],
            "stateMutability": "view",
            "type": "function"
        },
        {
            "inputs": [],
            "name": "buyHST",
            "outputs": [],
            "stateMutability": "payable",
            "type": "function"
        },
        {
            "inputs": [],
            "name": "depositLiquidity",
            "outputs": [],
            "stateMutability": "payable",
            "type": "function"
        },
        {
            "inputs": [],
            "name": "owner",
            "outputs": [
                {
                    "internalType": "address",
                    "name": "",
                    "type": "address"
                }
            ],
            "stateMutability": "view",
            "type": "function"
        },
        {
            "inputs": [],
            "name": "renounceOwnership",
            "outputs": [],
            "stateMutability": "nonpayable",
            "type": "function"
        },
        {
            "inputs": [
                {
                    "internalType": "uint256",
                    "name": "_tokenAmount",
                    "type": "uint256"
                }
            ],
            "name": "sellHST",
            "outputs": [],
            "stateMutability": "nonpayable",
            "type": "function"
        },
        {
            "inputs": [],
            "name": "token",
            "outputs": [
                {
                    "internalType": "contract HustToken",
                    "name": "",
                    "type": "address"
                }
            ],
            "stateMutability": "view",
            "type": "function"
        },
        {
            "inputs": [
                {
                    "internalType": "address",
                    "name": "newOwner",
                    "type": "address"
                }
            ],
            "name": "transferOwnership",
            "outputs": [],
            "stateMutability": "nonpayable",
            "type": "function"
        },
        {
            "inputs": [
                {
                    "internalType": "uint256",
                    "name": "_amount",
                    "type": "uint256"
                }
            ],
            "name": "withdrawETH",
            "outputs": [],
            "stateMutability": "nonpayable",
            "type": "function"
        },
        {
            "stateMutability": "payable",
            "type": "receive"
        }
    ],
    "bytecode": "0x608060405234801561001057600080fd5b506040516112a53803806112a583398181016040528101906100329190610223565b33600073ffffffffffffffffffffffffffffffffffffffff168173ffffffffffffffffffffffffffffffffffffffff16036100a55760006040517f1e4fbdf700000000000000000000000000000000000000000000000000000000815260040161009c919061025f565b60405180910390fd5b6100b4816100fc60201b60201c565b5080600160006101000a81548173ffffffffffffffffffffffffffffffffffffffff021916908373ffffffffffffffffffffffffffffffffffffffff1602179055505061027a565b60008060009054906101000a900473ffffffffffffffffffffffffffffffffffffffff169050816000806101000a81548173ffffffffffffffffffffffffffffffffffffffff021916908373ffffffffffffffffffffffffffffffffffffffff1602179055508173ffffffffffffffffffffffffffffffffffffffff168173ffffffffffffffffffffffffffffffffffffffff167f8be0079c531659141344cd1fd0a4f28419497f9722a3daafe3b4186f6b6457e060405160405180910390a35050565b600080fd5b600073ffffffffffffffffffffffffffffffffffffffff82169050919050565b60006101f0826101c5565b9050919050565b610200816101e5565b811461020b57600080fd5b50565b60008151905061021d816101f7565b92915050565b600060208284031215610239576102386101c0565b5b60006102478482850161020e565b91505092915050565b610259816101e5565b82525050565b60006020820190506102746000830184610250565b92915050565b61101c806102896000396000f3fe6080604052600436106100a05760003560e01c8063ca593c5911610064578063ca593c591461016d578063d73792a914610177578063f14210a6146101a2578063f2fde38b146101cb578063f62227e7146101f4578063fc0c546a146101fe576100a7565b8063664e9704146100ac578063715018a6146100d75780638da5cb5b146100ee578063baea45c914610119578063c2572c5514610142576100a7565b366100a757005b600080fd5b3480156100b857600080fd5b506100c1610229565b6040516100ce91906109cf565b60405180910390f35b3480156100e357600080fd5b506100ec610230565b005b3480156100fa57600080fd5b50610103610244565b6040516101109190610a2b565b60405180910390f35b34801561012557600080fd5b50610140600480360381019061013b9190610a77565b61026d565b005b34801561014e57600080fd5b50610157610462565b60405161016491906109cf565b60405180910390f35b610175610467565b005b34801561018357600080fd5b5061018c6104a8565b60405161019991906109cf565b60405180910390f35b3480156101ae57600080fd5b506101c960048036038101906101c49190610a77565b6104ae565b005b3480156101d757600080fd5b506101f260048036038101906101ed9190610ad0565b61067f565b005b6101fc610705565b005b34801561020a57600080fd5b5061021361083d565b6040516102209190610b5c565b60405180910390f35b620186a081565b610238610863565b61024260006108ea565b565b60008060009054906101000a900473ffffffffffffffffffffffffffffffffffffffff16905090565b600081116102b0576040517f08c379a00000000000000000000000000000000000000000000000000000000081526004016102a790610bd4565b60405180910390fd5b6000620186a0826102c19190610c52565b905060006103e86021836102d59190610c83565b6102df9190610c52565b9050600081836102ef9190610cc5565b905080471015610334576040517f08c379a000000000000000000000000000000000000000000000000000000000815260040161032b90610d6b565b60405180910390fd5b600160009054906101000a900473ffffffffffffffffffffffffffffffffffffffff1673ffffffffffffffffffffffffffffffffffffffff166379cc679033866040518363ffffffff1660e01b8152600401610391929190610d8b565b600060405180830381600087803b1580156103ab57600080fd5b505af11580156103bf573d6000803e3d6000fd5b505050503373ffffffffffffffffffffffffffffffffffffffff166108fc829081150290604051600060405180830381858888f19350505050158015610409573d6000803e3d6000fd5b503373ffffffffffffffffffffffffffffffffffffffff167f6db63bebf1e6540277744df32846ebdb98385b1a73f2d5de49b28348add63f5085838560405161045493929190610db4565b60405180910390a250505050565b602181565b61046f610863565b7ffdb748c915e4e67b4bb23287bf4295a4595ce48b50343214369f72ccfb974cfa3460405161049e91906109cf565b60405180910390a1565b6103e881565b6104b6610863565b804710156104f9576040517f08c379a00000000000000000000000000000000000000000000000000000000081526004016104f090610e37565b60405180910390fd5b6000600160009054906101000a900473ffffffffffffffffffffffffffffffffffffffff1673ffffffffffffffffffffffffffffffffffffffff166318160ddd6040518163ffffffff1660e01b8152600401602060405180830381865afa158015610568573d6000803e3d6000fd5b505050506040513d601f19601f8201168201806040525081019061058c9190610e6c565b90506000620186a08261059f9190610c52565b9050600083476105af9190610cc5565b9050818110156105f4576040517f08c379a00000000000000000000000000000000000000000000000000000000081526004016105eb90610f31565b60405180910390fd5b6105fc610244565b73ffffffffffffffffffffffffffffffffffffffff166108fc859081150290604051600060405180830381858888f19350505050158015610641573d6000803e3d6000fd5b507f9800e6f57aeb4360eaa72295a820a4293e1e66fbfcabcd8874ae141304a76deb8460405161067191906109cf565b60405180910390a150505050565b610687610863565b600073ffffffffffffffffffffffffffffffffffffffff168173ffffffffffffffffffffffffffffffffffffffff16036106f95760006040517f1e4fbdf70000000000000000000000000000000000000000000000000000000081526004016106f09190610a2b565b60405180910390fd5b610702816108ea565b50565b60003411610748576040517f08c379a000000000000000000000000000000000000000000000000000000000815260040161073f90610f9d565b60405180910390fd5b6000620186a0346107599190610c83565b9050600160009054906101000a900473ffffffffffffffffffffffffffffffffffffffff1673ffffffffffffffffffffffffffffffffffffffff166340c10f1933836040518363ffffffff1660e01b81526004016107b8929190610d8b565b600060405180830381600087803b1580156107d257600080fd5b505af11580156107e6573d6000803e3d6000fd5b505050503373ffffffffffffffffffffffffffffffffffffffff167f8fafebcaf9d154343dad25669bfa277f4fbacd7ac6b0c4fed522580e040a0f333483604051610832929190610fbd565b60405180910390a250565b600160009054906101000a900473ffffffffffffffffffffffffffffffffffffffff1681565b61086b6109ae565b73ffffffffffffffffffffffffffffffffffffffff16610889610244565b73ffffffffffffffffffffffffffffffffffffffff16146108e8576108ac6109ae565b6040517f118cdaa70000000000000000000000000000000000000000000000000000000081526004016108df9190610a2b565b60405180910390fd5b565b60008060009054906101000a900473ffffffffffffffffffffffffffffffffffffffff169050816000806101000a81548173ffffffffffffffffffffffffffffffffffffffff021916908373ffffffffffffffffffffffffffffffffffffffff1602179055508173ffffffffffffffffffffffffffffffffffffffff168173ffffffffffffffffffffffffffffffffffffffff167f8be0079c531659141344cd1fd0a4f28419497f9722a3daafe3b4186f6b6457e060405160405180910390a35050565b600033905090565b6000819050919050565b6109c9816109b6565b82525050565b60006020820190506109e460008301846109c0565b92915050565b600073ffffffffffffffffffffffffffffffffffffffff82169050919050565b6000610a15826109ea565b9050919050565b610a2581610a0a565b82525050565b6000602082019050610a406000830184610a1c565b92915050565b600080fd5b610a54816109b6565b8114610a5f57600080fd5b50565b600081359050610a7181610a4b565b92915050565b600060208284031215610a8d57610a8c610a46565b5b6000610a9b84828501610a62565b91505092915050565b610aad81610a0a565b8114610ab857600080fd5b50565b600081359050610aca81610aa4565b92915050565b600060208284031215610ae657610ae5610a46565b5b6000610af484828501610abb565b91505092915050565b6000819050919050565b6000610b22610b1d610b18846109ea565b610afd565b6109ea565b9050919050565b6000610b3482610b07565b9050919050565b6000610b4682610b29565b9050919050565b610b5681610b3b565b82525050565b6000602082019050610b716000830184610b4d565b92915050565b600082825260208201905092915050565b7f536f206c756f6e67203e20300000000000000000000000000000000000000000600082015250565b6000610bbe600c83610b77565b9150610bc982610b88565b602082019050919050565b60006020820190508181036000830152610bed81610bb1565b9050919050565b7f4e487b7100000000000000000000000000000000000000000000000000000000600052601260045260246000fd5b7f4e487b7100000000000000000000000000000000000000000000000000000000600052601160045260246000fd5b6000610c5d826109b6565b9150610c68836109b6565b925082610c7857610c77610bf4565b5b828204905092915050565b6000610c8e826109b6565b9150610c99836109b6565b9250828202610ca7816109b6565b91508282048414831517610cbe57610cbd610c23565b5b5092915050565b6000610cd0826109b6565b9150610cdb836109b6565b9250828203905081811115610cf357610cf2610c23565b5b92915050565b7f45786368616e676572206b686f6e6720647520455448207468616e68206b686f60008201527f616e000000000000000000000000000000000000000000000000000000000000602082015250565b6000610d55602283610b77565b9150610d6082610cf9565b604082019050919050565b60006020820190508181036000830152610d8481610d48565b9050919050565b6000604082019050610da06000830185610a1c565b610dad60208301846109c0565b9392505050565b6000606082019050610dc960008301866109c0565b610dd660208301856109c0565b610de360408301846109c0565b949350505050565b7f4b686f6e6720647520736f206475000000000000000000000000000000000000600082015250565b6000610e21600e83610b77565b9150610e2c82610deb565b602082019050919050565b60006020820190508181036000830152610e5081610e14565b9050919050565b600081519050610e6681610a4b565b92915050565b600060208284031215610e8257610e81610a46565b5b6000610e9084828501610e57565b91505092915050565b7f4b484f4e472044554f43205255543a2050686169206465206c6169204554482060008201527f62616f206368756e672063686f20736f204853542064616e67206c757520686160208201527f6e68210000000000000000000000000000000000000000000000000000000000604082015250565b6000610f1b604383610b77565b9150610f2682610e99565b606082019050919050565b60006020820190508181036000830152610f4a81610f0e565b9050919050565b7f5068616920677569204554480000000000000000000000000000000000000000600082015250565b6000610f87600c83610b77565b9150610f9282610f51565b602082019050919050565b60006020820190508181036000830152610fb681610f7a565b9050919050565b6000604082019050610fd260008301856109c0565b610fdf60208301846109c0565b939250505056fea264697066735822122002f2903cc4c263f9184371d708bc1d64ba8b996e9a9a57f04a0bb83142d1689564736f6c634300081c0033",
    "linkReferences": {},
    "deployedLinkReferences": {}
}