{
  "_format": "hh-sol-artifact-1",
  "contractName": "TokenExchanger",
  "sourceName": "contracts/TokenExchanger.sol",
  "abi": [
    {
      "inputs": [
        {
          "internalType": "address",
          "name": "_tokenAddress",
          "type": "address"
        }
      ],
      "stateMutability": "nonpayable",
      "type": "constructor"
    },
    {
      "inputs": [
        {
          "internalType": "address",
          "name": "owner",
          "type": "address"
        }
      ],
      "name": "OwnableInvalidOwner",
      "type": "error"
    },
    {
      "inputs": [
        {
          "internalType": "address",
          "name": "account",
          "type": "address"
        }
      ],
      "name": "OwnableUnauthorizedAccount",
      "type": "error"
    },
    {
      "anonymous": false,
      "inputs": [
        {
          "indexed": false,
          "internalType": "uint256",
          "name": "ethAmount",
          "type": "uint256"
        }
      ],
      "name": "FeesWithdrawn",
      "type": "event"
    },
    {
      "anonymous": false,
      "inputs": [
        {
          "indexed": false,
          "internalType": "uint256",
          "name": "ethAmount",
          "type": "uint256"
        }
      ],
      "name": "LiquidityAdded",
      "type": "event"
    },
    {
      "anonymous": false,
      "inputs": [
        {
          "indexed": true,
          "internalType": "address",
          "name": "previousOwner",
          "type": "address"
        },
        {
          "indexed": true,
          "internalType": "address",
          "name": "newOwner",
          "type": "address"
        }
      ],
      "name": "OwnershipTransferred",
      "type": "event"
    },
    {
      "anonymous": false,
      "inputs": [
        {
          "indexed": true,
          "internalType": "address",
          "name": "buyer",
          "type": "address"
        },
        {
          "indexed": false,
          "internalType": "uint256",
          "name": "ethAmount",
          "type": "uint256"
        },
        {
          "indexed": false,
          "internalType": "uint256",
          "name": "tokenAmount",
          "type": "uint256"
        }
      ],
      "name": "TokensPurchased",
      "type": "event"
    },
    {
      "anonymous": false,
      "inputs": [
        {
          "indexed": true,
          "internalType": "address",
          "name": "seller",
          "type": "address"
        },
        {
          "indexed": false,
          "internalType": "uint256",
          "name": "tokenAmount",
          "type": "uint256"
        },
        {
          "indexed": false,
          "internalType": "uint256",
          "name": "ethAmount",
          "type": "uint256"
        },
        {
          "indexed": false,
          "internalType": "uint256",
          "name": "fee",
          "type": "uint256"
        }
      ],
      "name": "TokensSold",
      "type": "event"
    },
    {
      "inputs": [],
      "name": "FEE_DENOMINATOR",
      "outputs": [
        {
          "internalType": "uint256",
          "name": "",
          "type": "uint256"
        }
      ],
      "stateMutability": "view",
      "type": "function"
    },
    {
      "inputs": [],
      "name": "RATE",
      "outputs": [
        {
          "internalType": "uint256",
          "name": "",
          "type": "uint256"
        }
      ],
      "stateMutability": "view",
      "type": "function"
    },
    {
      "inputs": [],
      "name": "SELL_FEE_NUMERATOR",
      "outputs": [
        {
          "internalType": "uint256",
          "name": "",
          "type": "uint256"
        }
      ],
      "stateMutability": "view",
      "type": "function"
    },
    {
      "inputs": [],
      "name": "buyHST",
      "outputs": [],
      "stateMutability": "payable",
      "type": "function"
    },
    {
      "inputs": [],
      "name": "depositLiquidity",
      "outputs": [],
      "stateMutability": "payable",
      "type": "function"
    },
    {
      "inputs": [],
      "name": "owner",
      "outputs": [
        {
          "internalType": "address",
          "name": "",
          "type": "address"
        }
      ],
      "stateMutability": "view",
      "type": "function"
    },
    {
      "inputs": [],
      "name": "renounceOwnership",
      "outputs": [],
      "stateMutability": "nonpayable",
      "type": "function"
    },
    {
      "inputs": [
        {
          "internalType": "uint256",
          "name": "_tokenAmount",
          "type": "uint256"
        }
      ],
      "name": "sellHST",
      "outputs": [],
      "stateMutability": "nonpayable",
      "type": "function"
    },
    {
      "inputs": [],
      "name": "token",
      "outputs": [
        {
          "internalType": "contract HustToken",
          "name": "",
          "type": "address"
        }
      ],
      "stateMutability": "view",
      "type": "function"
    },
    {
      "inputs": [
        {
          "internalType": "address",
          "name": "newOwner",
          "type": "address"
        }
      ],
      "name": "transferOwnership",
      "outputs": [],
      "stateMutability": "nonpayable",
      "type": "function"
    },
    {
      "inputs": [
        {
          "internalType": "uint256",
          "name": "_amount",
          "type": "uint256"
        }
      ],
      "name": "withdrawETH",
      "outputs": [],
      "stateMutability": "nonpayable",
      "type": "function"
    },
    {
      "stateMutability": "payable",
      "type": "receive"
    }
  ],
  "bytecode": "0x608060405234801561001057600080fd5b506040516113d73803806113d783398181016040528101906100329190610223565b33600073ffffffffffffffffffffffffffffffffffffffff168173ffffffffffffffffffffffffffffffffffffffff16036100a55760006040517f1e4fbdf700000000000000000000000000000000000000000000000000000000815260040161009c919061025f565b60405180910390fd5b6100b4816100fc60201b60201c565b5080600160006101000a81548173ffffffffffffffffffffffffffffffffffffffff021916908373ffffffffffffffffffffffffffffffffffffffff1602179055505061027a565b60008060009054906101000a900473ffffffffffffffffffffffffffffffffffffffff169050816000806101000a81548173ffffffffffffffffffffffffffffffffffffffff021916908373ffffffffffffffffffffffffffffffffffffffff1602179055508173ffffffffffffffffffffffffffffffffffffffff168173ffffffffffffffffffffffffffffffffffffffff167f8be0079c531659141344cd1fd0a4f28419497f9722a3daafe3b4186f6b6457e060405160405180910390a35050565b600080fd5b600073ffffffffffffffffffffffffffffffffffffffff82169050919050565b60006101f0826101c5565b9050919050565b610200816101e5565b811461020b57600080fd5b50565b60008151905061021d816101f7565b92915050565b600060208284031215610239576102386101c0565b5b60006102478482850161020e565b91505092915050565b610259816101e5565b82525050565b60006020820190506102746000830184610250565b92915050565b61114e806102896000396000f3fe6080604052600436106100a05760003560e01c8063ca593c5911610064578063ca593c591461016d578063d73792a914610177578063f14210a6146101a2578063f2fde38b146101cb578063f62227e7146101f4578063fc0c546a146101fe576100a7565b8063664e9704146100ac578063715018a6146100d75780638da5cb5b146100ee578063baea45c914610119578063c2572c5514610142576100a7565b366100a757005b600080fd5b3480156100b857600080fd5b506100c1610229565b6040516100ce9190610a9b565b60405180910390f35b3480156100e357600080fd5b506100ec610230565b005b3480156100fa57600080fd5b50610103610244565b6040516101109190610af7565b60405180910390f35b34801561012557600080fd5b50610140600480360381019061013b9190610b43565b61026d565b005b34801561014e57600080fd5b506101576104c8565b6040516101649190610a9b565b60405180910390f35b6101756104cd565b005b34801561018357600080fd5b5061018c61050e565b6040516101999190610a9b565b60405180910390f35b3480156101ae57600080fd5b506101c960048036038101906101c49190610b43565b610514565b005b3480156101d757600080fd5b506101f260048036038101906101ed9190610b9c565b61074b565b005b6101fc6107d1565b005b34801561020a57600080fd5b50610213610909565b6040516102209190610c28565b60405180910390f35b620186a081565b61023861092f565b61024260006109b6565b565b60008060009054906101000a900473ffffffffffffffffffffffffffffffffffffffff16905090565b600081116102b0576040517f08c379a00000000000000000000000000000000000000000000000000000000081526004016102a790610ca0565b60405180910390fd5b6000620186a0826102c19190610d1e565b905060006103e86021836102d59190610d4f565b6102df9190610d1e565b9050600081836102ef9190610d91565b905080471015610334576040517f08c379a000000000000000000000000000000000000000000000000000000000815260040161032b90610e37565b60405180910390fd5b600160009054906101000a900473ffffffffffffffffffffffffffffffffffffffff1673ffffffffffffffffffffffffffffffffffffffff166379cc679033866040518363ffffffff1660e01b8152600401610391929190610e57565b600060405180830381600087803b1580156103ab57600080fd5b505af11580156103bf573d6000803e3d6000fd5b5050505060003373ffffffffffffffffffffffffffffffffffffffff16826040516103e990610eb1565b60006040518083038185875af1925050503d8060008114610426576040519150601f19603f3d011682016040523d82523d6000602084013e61042b565b606091505b505090508061046f576040517f08c379a000000000000000000000000000000000000000000000000000000000815260040161046690610f12565b60405180910390fd5b3373ffffffffffffffffffffffffffffffffffffffff167f6db63bebf1e6540277744df32846ebdb98385b1a73f2d5de49b28348add63f508684866040516104b993929190610f32565b60405180910390a25050505050565b602181565b6104d561092f565b7ffdb748c915e4e67b4bb23287bf4295a4595ce48b50343214369f72ccfb974cfa346040516105049190610a9b565b60405180910390a1565b6103e881565b61051c61092f565b8047101561055f576040517f08c379a000000000000000000000000000000000000000000000000000000000815260040161055690610fb5565b60405180910390fd5b6000600160009054906101000a900473ffffffffffffffffffffffffffffffffffffffff1673ffffffffffffffffffffffffffffffffffffffff166318160ddd6040518163ffffffff1660e01b8152600401602060405180830381865afa1580156105ce573d6000803e3d6000fd5b505050506040513d601f19601f820116820180604052508101906105f29190610fea565b90506000620186a0826106059190610d1e565b9050600083476106159190610d91565b90508181101561065a576040517f08c379a000000000000000000000000000000000000000000000000000000000815260040161065190611063565b60405180910390fd5b6000610664610244565b73ffffffffffffffffffffffffffffffffffffffff168560405161068790610eb1565b60006040518083038185875af1925050503d80600081146106c4576040519150601f19603f3d011682016040523d82523d6000602084013e6106c9565b606091505b505090508061070d576040517f08c379a000000000000000000000000000000000000000000000000000000000815260040161070490610f12565b60405180910390fd5b7f9800e6f57aeb4360eaa72295a820a4293e1e66fbfcabcd8874ae141304a76deb8560405161073c9190610a9b565b60405180910390a15050505050565b61075361092f565b600073ffffffffffffffffffffffffffffffffffffffff168173ffffffffffffffffffffffffffffffffffffffff16036107c55760006040517f1e4fbdf70000000000000000000000000000000000000000000000000000000081526004016107bc9190610af7565b60405180910390fd5b6107ce816109b6565b50565b60003411610814576040517f08c379a000000000000000000000000000000000000000000000000000000000815260040161080b906110cf565b60405180910390fd5b6000620186a0346108259190610d4f565b9050600160009054906101000a900473ffffffffffffffffffffffffffffffffffffffff1673ffffffffffffffffffffffffffffffffffffffff166340c10f1933836040518363ffffffff1660e01b8152600401610884929190610e57565b600060405180830381600087803b15801561089e57600080fd5b505af11580156108b2573d6000803e3d6000fd5b505050503373ffffffffffffffffffffffffffffffffffffffff167f8fafebcaf9d154343dad25669bfa277f4fbacd7ac6b0c4fed522580e040a0f3334836040516108fe9291906110ef565b60405180910390a250565b600160009054906101000a900473ffffffffffffffffffffffffffffffffffffffff1681565b610937610a7a565b73ffffffffffffffffffffffffffffffffffffffff16610955610244565b73ffffffffffffffffffffffffffffffffffffffff16146109b457610978610a7a565b6040517f118cdaa70000000000000000000000000000000000000000000000000000000081526004016109ab9190610af7565b60405180910390fd5b565b60008060009054906101000a900473ffffffffffffffffffffffffffffffffffffffff169050816000806101000a81548173ffffffffffffffffffffffffffffffffffffffff021916908373ffffffffffffffffffffffffffffffffffffffff1602179055508173ffffffffffffffffffffffffffffffffffffffff168173ffffffffffffffffffffffffffffffffffffffff167f8be0079c531659141344cd1fd0a4f28419497f9722a3daafe3b4186f6b6457e060405160405180910390a35050565b600033905090565b6000819050919050565b610a9581610a82565b82525050565b6000602082019050610ab06000830184610a8c565b92915050565b600073ffffffffffffffffffffffffffffffffffffffff82169050919050565b6000610ae182610ab6565b9050919050565b610af181610ad6565b82525050565b6000602082019050610b0c6000830184610ae8565b92915050565b600080fd5b610b2081610a82565b8114610b2b57600080fd5b50565b600081359050610b3d81610b17565b92915050565b600060208284031215610b5957610b58610b12565b5b6000610b6784828501610b2e565b91505092915050565b610b7981610ad6565b8114610b8457600080fd5b50565b600081359050610b9681610b70565b92915050565b600060208284031215610bb257610bb1610b12565b5b6000610bc084828501610b87565b91505092915050565b6000819050919050565b6000610bee610be9610be484610ab6565b610bc9565b610ab6565b9050919050565b6000610c0082610bd3565b9050919050565b6000610c1282610bf5565b9050919050565b610c2281610c07565b82525050565b6000602082019050610c3d6000830184610c19565b92915050565b600082825260208201905092915050565b7f536f206c756f6e67203e20300000000000000000000000000000000000000000600082015250565b6000610c8a600c83610c43565b9150610c9582610c54565b602082019050919050565b60006020820190508181036000830152610cb981610c7d565b9050919050565b7f4e487b7100000000000000000000000000000000000000000000000000000000600052601260045260246000fd5b7f4e487b7100000000000000000000000000000000000000000000000000000000600052601160045260246000fd5b6000610d2982610a82565b9150610d3483610a82565b925082610d4457610d43610cc0565b5b828204905092915050565b6000610d5a82610a82565b9150610d6583610a82565b9250828202610d7381610a82565b91508282048414831517610d8a57610d89610cef565b5b5092915050565b6000610d9c82610a82565b9150610da783610a82565b9250828203905081811115610dbf57610dbe610cef565b5b92915050565b7f45786368616e676572206b686f6e6720647520455448207468616e68206b686f60008201527f616e000000000000000000000000000000000000000000000000000000000000602082015250565b6000610e21602283610c43565b9150610e2c82610dc5565b604082019050919050565b60006020820190508181036000830152610e5081610e14565b9050919050565b6000604082019050610e6c6000830185610ae8565b610e796020830184610a8c565b9392505050565b600081905092915050565b50565b6000610e9b600083610e80565b9150610ea682610e8b565b600082019050919050565b6000610ebc82610e8e565b9150819050919050565b7f5275742045544820746861742062616900000000000000000000000000000000600082015250565b6000610efc601083610c43565b9150610f0782610ec6565b602082019050919050565b60006020820190508181036000830152610f2b81610eef565b9050919050565b6000606082019050610f476000830186610a8c565b610f546020830185610a8c565b610f616040830184610a8c565b949350505050565b7f4b686f6e6720647520736f206475000000000000000000000000000000000000600082015250565b6000610f9f600e83610c43565b9150610faa82610f69565b602082019050919050565b60006020820190508181036000830152610fce81610f92565b9050919050565b600081519050610fe481610b17565b92915050565b60006020828403121561100057610fff610b12565b5b600061100e84828501610fd5565b91505092915050565b7f5068616920676975206c616920647520766f6e2062616f206368756e67210000600082015250565b600061104d601e83610c43565b915061105882611017565b602082019050919050565b6000602082019050818103600083015261107c81611040565b9050919050565b7f5068616920677569204554480000000000000000000000000000000000000000600082015250565b60006110b9600c83610c43565b91506110c482611083565b602082019050919050565b600060208201905081810360008301526110e8816110ac565b9050919050565b60006040820190506111046000830185610a8c565b6111116020830184610a8c565b939250505056fea26469706673582212202073c1e5e8a43139b6f33d274818a55e5c1ecf56b6e62ae4fa28de6f070666c764736f6c634300081c0033",
  "linkReferences": {},
  "deployedLinkReferences": {}
}